{
  "contractName": "Merels",
  "abi": [
    {
      "inputs": [],
      "stateMutability": "nonpayable",
      "type": "constructor"
    },
    {
      "anonymous": false,
      "inputs": [
        {
          "indexed": true,
          "internalType": "address",
          "name": "_sender",
          "type": "address"
        },
        {
          "indexed": true,
          "internalType": "address",
          "name": "_joined",
          "type": "address"
        }
      ],
      "name": "GameJoined",
      "type": "event"
    },
    {
      "anonymous": false,
      "inputs": [
        {
          "indexed": true,
          "internalType": "address",
          "name": "_sender",
          "type": "address"
        }
      ],
      "name": "GameStarted",
      "type": "event"
    },
    {
      "anonymous": false,
      "inputs": [
        {
          "indexed": true,
          "internalType": "address",
          "name": "_sender",
          "type": "address"
        }
      ],
      "name": "LuckyPlayer",
      "type": "event"
    },
    {
      "anonymous": false,
      "inputs": [
        {
          "indexed": true,
          "internalType": "address",
          "name": "_sender",
          "type": "address"
        },
        {
          "indexed": false,
          "internalType": "int256",
          "name": "_toPos",
          "type": "int256"
        },
        {
          "indexed": false,
          "internalType": "int256",
          "name": "_fromPos",
          "type": "int256"
        },
        {
          "indexed": false,
          "internalType": "int256",
          "name": "_removePos",
          "type": "int256"
        }
      ],
      "name": "MadeMove",
      "type": "event"
    },
    {
      "anonymous": false,
      "inputs": [
        {
          "indexed": true,
          "internalType": "address",
          "name": "_sender",
          "type": "address"
        }
      ],
      "name": "WonGame",
      "type": "event"
    },
    {
      "inputs": [],
      "name": "activeGames",
      "outputs": [
        {
          "internalType": "uint256",
          "name": "",
          "type": "uint256"
        }
      ],
      "stateMutability": "view",
      "type": "function",
      "constant": true
    },
    {
      "inputs": [
        {
          "internalType": "uint256",
          "name": "",
          "type": "uint256"
        }
      ],
      "name": "allPlayers",
      "outputs": [
        {
          "internalType": "address",
          "name": "",
          "type": "address"
        }
      ],
      "stateMutability": "view",
      "type": "function",
      "constant": true
    },
    {
      "inputs": [],
      "name": "finishedGames",
      "outputs": [
        {
          "internalType": "uint256",
          "name": "",
          "type": "uint256"
        }
      ],
      "stateMutability": "view",
      "type": "function",
      "constant": true
    },
    {
      "inputs": [],
      "name": "finishedGamesSinceLastPayout",
      "outputs": [
        {
          "internalType": "uint256",
          "name": "",
          "type": "uint256"
        }
      ],
      "stateMutability": "view",
      "type": "function",
      "constant": true
    },
    {
      "inputs": [
        {
          "internalType": "address",
          "name": "",
          "type": "address"
        }
      ],
      "name": "gameNumberByAddress",
      "outputs": [
        {
          "internalType": "uint256",
          "name": "",
          "type": "uint256"
        }
      ],
      "stateMutability": "view",
      "type": "function",
      "constant": true
    },
    {
      "inputs": [
        {
          "internalType": "uint256",
          "name": "",
          "type": "uint256"
        }
      ],
      "name": "games",
      "outputs": [
        {
          "internalType": "uint256",
          "name": "round",
          "type": "uint256"
        },
        {
          "internalType": "uint256",
          "name": "index",
          "type": "uint256"
        },
        {
          "internalType": "address",
          "name": "white",
          "type": "address"
        },
        {
          "internalType": "address",
          "name": "black",
          "type": "address"
        }
      ],
      "stateMutability": "view",
      "type": "function",
      "constant": true
    },
    {
      "inputs": [
        {
          "internalType": "address",
          "name": "",
          "type": "address"
        }
      ],
      "name": "gamesWonByAddress",
      "outputs": [
        {
          "internalType": "uint256",
          "name": "",
          "type": "uint256"
        }
      ],
      "stateMutability": "view",
      "type": "function",
      "constant": true
    },
    {
      "inputs": [
        {
          "internalType": "uint256",
          "name": "",
          "type": "uint256"
        },
        {
          "internalType": "int256",
          "name": "",
          "type": "int256"
        }
      ],
      "name": "positions",
      "outputs": [
        {
          "internalType": "enum Merels.COLORS",
          "name": "",
          "type": "uint8"
        }
      ],
      "stateMutability": "view",
      "type": "function",
      "constant": true
    },
    {
      "inputs": [
        {
          "internalType": "address",
          "name": "",
          "type": "address"
        }
      ],
      "name": "roundsPlayedByAddress",
      "outputs": [
        {
          "internalType": "uint256",
          "name": "",
          "type": "uint256"
        }
      ],
      "stateMutability": "view",
      "type": "function",
      "constant": true
    },
    {
      "inputs": [],
      "name": "startGame",
      "outputs": [],
      "stateMutability": "payable",
      "type": "function",
      "payable": true
    },
    {
      "inputs": [
        {
          "internalType": "address",
          "name": "oponent",
          "type": "address"
        }
      ],
      "name": "joinGame",
      "outputs": [],
      "stateMutability": "payable",
      "type": "function",
      "payable": true
    },
    {
      "inputs": [
        {
          "internalType": "int256",
          "name": "toPos",
          "type": "int256"
        },
        {
          "internalType": "int256",
          "name": "fromPos",
          "type": "int256"
        },
        {
          "internalType": "int256",
          "name": "removePos",
          "type": "int256"
        }
      ],
      "name": "makeMove",
      "outputs": [],
      "stateMutability": "payable",
      "type": "function",
      "payable": true
    },
    {
      "inputs": [
        {
          "internalType": "uint256",
          "name": "gameNumber",
          "type": "uint256"
        }
      ],
      "name": "getGamesIndex",
      "outputs": [
        {
          "internalType": "uint256",
          "name": "",
          "type": "uint256"
        }
      ],
      "stateMutability": "view",
      "type": "function",
      "constant": true
    },
    {
      "inputs": [
        {
          "internalType": "uint256",
          "name": "gameNumber",
          "type": "uint256"
        }
      ],
      "name": "getPositions",
      "outputs": [
        {
          "internalType": "enum Merels.COLORS[]",
          "name": "",
          "type": "uint8[]"
        }
      ],
      "stateMutability": "view",
      "type": "function",
      "constant": true
    },
    {
      "inputs": [],
      "name": "gameCount",
      "outputs": [
        {
          "internalType": "uint256",
          "name": "",
          "type": "uint256"
        }
      ],
      "stateMutability": "view",
      "type": "function",
      "constant": true
    }
  ],
  "bytecode": "0x608060405234801561001057600080fd5b50336000806101000a81548173ffffffffffffffffffffffffffffffffffffffff021916908373ffffffffffffffffffffffffffffffffffffffff160217905550614bdc806100606000396000f3fe6080604052600436106100e85760003560e01c806394f7060b1161008a578063e27be60f11610059578063e27be60f146102f6578063e475222e14610333578063e50d1ad71461035e578063edcf196914610389576100e8565b806394f7060b14610235578063aac5cd9b14610272578063d65ab5f2146102af578063db8d67f6146102b9576100e8565b80632389a290116100c65780632389a2901461019557806330e00596146101b15780634d1975b4146101ee5780638d34bba414610219576100e8565b80630544ce5e146100ed578063113634951461012a578063117a5b9014610155575b600080fd5b3480156100f957600080fd5b50610114600480360381019061010f9190613fb5565b6103c6565b6040516101219190614401565b60405180910390f35b34801561013657600080fd5b5061013f610405565b60405161014c9190614610565b60405180910390f35b34801561016157600080fd5b5061017c60048036038101906101779190613fb5565b61040b565b60405161018c949392919061462b565b60405180910390f35b6101af60048036038101906101aa9190613f3d565b61048b565b005b3480156101bd57600080fd5b506101d860048036038101906101d39190613fb5565b610876565b6040516101e5919061441c565b60405180910390f35b3480156101fa57600080fd5b50610203610a68565b6040516102109190614610565b60405180910390f35b610233600480360381019061022e9190613f66565b610a75565b005b34801561024157600080fd5b5061025c60048036038101906102579190613f3d565b611a07565b6040516102699190614610565b60405180910390f35b34801561027e57600080fd5b5061029960048036038101906102949190613fde565b611a1f565b6040516102a6919061443e565b60405180910390f35b6102b7611a4e565b005b3480156102c557600080fd5b506102e060048036038101906102db9190613fb5565b611cf8565b6040516102ed9190614610565b60405180910390f35b34801561030257600080fd5b5061031d60048036038101906103189190613f3d565b611d59565b60405161032a9190614610565b60405180910390f35b34801561033f57600080fd5b50610348611d71565b6040516103559190614610565b60405180910390f35b34801561036a57600080fd5b50610373611d77565b6040516103809190614610565b60405180910390f35b34801561039557600080fd5b506103b060048036038101906103ab9190613f3d565b611d7d565b6040516103bd9190614610565b60405180910390f35b600481815481106103d657600080fd5b906000526020600020016000915054906101000a900473ffffffffffffffffffffffffffffffffffffffff1681565b60025481565b6006818154811061041b57600080fd5b90600052602060002090600402016000915090508060000154908060010154908060020160009054906101000a900473ffffffffffffffffffffffffffffffffffffffff16908060030160009054906101000a900473ffffffffffffffffffffffffffffffffffffffff16905084565b6000600560003373ffffffffffffffffffffffffffffffffffffffff1673ffffffffffffffffffffffffffffffffffffffff168152602001908152602001600020541461050d576040517f08c379a0000000000000000000000000000000000000000000000000000000008152600401610504906145f0565b60405180910390fd5b6000600560008373ffffffffffffffffffffffffffffffffffffffff1673ffffffffffffffffffffffffffffffffffffffff168152602001908152602001600020541161058f576040517f08c379a000000000000000000000000000000000000000000000000000000000815260040161058690614490565b60405180910390fd5b662386f26fc1000034146105d8576040517f08c379a00000000000000000000000000000000000000000000000000000000081526004016105cf906144b0565b60405180910390fd5b60006001600560008473ffffffffffffffffffffffffffffffffffffffff1673ffffffffffffffffffffffffffffffffffffffff16815260200190815260200160002054610626919061492d565b9050600073ffffffffffffffffffffffffffffffffffffffff166006828154811061067a577f4e487b7100000000000000000000000000000000000000000000000000000000600052603260045260246000fd5b906000526020600020906004020160030160009054906101000a900473ffffffffffffffffffffffffffffffffffffffff1673ffffffffffffffffffffffffffffffffffffffff1614610702576040517f08c379a00000000000000000000000000000000000000000000000000000000081526004016106f9906144f0565b60405180910390fd5b336006828154811061073d577f4e487b7100000000000000000000000000000000000000000000000000000000600052603260045260246000fd5b906000526020600020906004020160030160006101000a81548173ffffffffffffffffffffffffffffffffffffffff021916908373ffffffffffffffffffffffffffffffffffffffff160217905550600560008373ffffffffffffffffffffffffffffffffffffffff1673ffffffffffffffffffffffffffffffffffffffff16815260200190815260200160002054600560003373ffffffffffffffffffffffffffffffffffffffff1673ffffffffffffffffffffffffffffffffffffffff1681526020019081526020016000208190555061081833611d95565b8173ffffffffffffffffffffffffffffffffffffffff163373ffffffffffffffffffffffffffffffffffffffff167fa4082afb15bb2709c549fe93aa02f69fcdc38ce4223337f22c6ea00f09568d9360405160405180910390a35050565b60606000601867ffffffffffffffff8111156108bb577f4e487b7100000000000000000000000000000000000000000000000000000000600052604160045260246000fd5b6040519080825280602002602001820160405280156108e95781602001602082028036833780820191505090505b5090508260068054905010610a5f5760006006600185610909919061492d565b81548110610940577f4e487b7100000000000000000000000000000000000000000000000000000000600052603260045260246000fd5b9060005260206000209060040201905060005b6018811215610a5c576009600083600101548152602001908152602001600020600082815260200190815260200160002060009054906101000a900460ff168382815181106109cb577f4e487b7100000000000000000000000000000000000000000000000000000000600052603260045260246000fd5b60200260200101906002811115610a0b577f4e487b7100000000000000000000000000000000000000000000000000000000600052602160045260246000fd5b90816002811115610a45577f4e487b7100000000000000000000000000000000000000000000000000000000600052602160045260246000fd5b815250508080610a54906149cc565b915050610953565b50505b80915050919050565b6000600680549050905090565b6000600560003373ffffffffffffffffffffffffffffffffffffffff1673ffffffffffffffffffffffffffffffffffffffff1681526020019081526020016000205411610af7576040517f08c379a0000000000000000000000000000000000000000000000000000000008152600401610aee90614550565b60405180910390fd5b600060066001600560003373ffffffffffffffffffffffffffffffffffffffff1673ffffffffffffffffffffffffffffffffffffffff16815260200190815260200160002054610b47919061492d565b81548110610b7e577f4e487b7100000000000000000000000000000000000000000000000000000000600052603260045260246000fd5b9060005260206000209060040201905060003373ffffffffffffffffffffffffffffffffffffffff168260020160009054906101000a900473ffffffffffffffffffffffffffffffffffffffff1673ffffffffffffffffffffffffffffffffffffffff1614610bee576002610bf1565b60015b9050600060028360000154610c069190614a8f565b14151560016002811115610c43577f4e487b7100000000000000000000000000000000000000000000000000000000600052602160045260246000fd5b826002811115610c7c577f4e487b7100000000000000000000000000000000000000000000000000000000600052602160045260246000fd5b14151514610cbf576040517f08c379a0000000000000000000000000000000000000000000000000000000008152600401610cb6906145b0565b60405180910390fd5b60008512158015610cd05750601885125b8015610d81575060006002811115610d11577f4e487b7100000000000000000000000000000000000000000000000000000000600052602160045260246000fd5b6009600084600101548152602001908152602001600020600087815260200190815260200160002060009054906101000a900460ff166002811115610d7f577f4e487b7100000000000000000000000000000000000000000000000000000000600052602160045260246000fd5b145b610dc0576040517f08c379a0000000000000000000000000000000000000000000000000000000008152600401610db7906144d0565b60405180910390fd5b6000600886610dcf9190614a5e565b90506000600887610de091906147a4565b9050601284600001541015610ead5760008612610e32576040517f08c379a0000000000000000000000000000000000000000000000000000000008152600401610e2990614510565b60405180910390fd5b826009600086600101548152602001908152602001600020600089815260200190815260200160002060006101000a81548160ff02191690836002811115610ea3577f4e487b7100000000000000000000000000000000000000000000000000000000600052602160045260246000fd5b021790555061123c565b60008612158015610ebe5750601886125b8015610f6e5750826002811115610efe577f4e487b7100000000000000000000000000000000000000000000000000000000600052602160045260246000fd5b6009600086600101548152602001908152602001600020600088815260200190815260200160002060009054906101000a900460ff166002811115610f6c577f4e487b7100000000000000000000000000000000000000000000000000000000600052602160045260246000fd5b145b610fad576040517f08c379a0000000000000000000000000000000000000000000000000000000008152600401610fa490614530565b60405180910390fd5b6000610fbd856001015485611ec8565b9050600381111561114d576000600888610fd79190614a5e565b90506000600889610fe891906147a4565b9050838114156110a357600082866110009190614899565b9050600181148061103057507fffffffffffffffffffffffffffffffffffffffffffffffffffffffffffffffff81145b8061104757506007831480156110465750600086145b5b8061105e575060008314801561105d5750600786145b5b61109d576040517f08c379a000000000000000000000000000000000000000000000000000000000815260040161109490614570565b60405180910390fd5b5061114a565b600184826110b19190614899565b14806110e757507fffffffffffffffffffffffffffffffffffffffffffffffffffffffffffffffff84826110e59190614899565b145b80156110f257508482145b801561110a575060016002836111089190614a5e565b145b611149576040517f08c379a000000000000000000000000000000000000000000000000000000000815260040161114090614570565b60405180910390fd5b5b50505b60006009600087600101548152602001908152602001600020600089815260200190815260200160002060006101000a81548160ff021916908360028111156111bf577f4e487b7100000000000000000000000000000000000000000000000000000000600052602160045260246000fd5b021790555083600960008760010154815260200190815260200160002060008a815260200190815260200160002060006101000a81548160ff02191690836002811115611235577f4e487b7100000000000000000000000000000000000000000000000000000000600052602160045260246000fd5b0217905550505b6000611249888587611fb1565b905060008060016002811115611288577f4e487b7100000000000000000000000000000000000000000000000000000000600052602160045260246000fd5b8660028111156112c1577f4e487b7100000000000000000000000000000000000000000000000000000000600052602160045260246000fd5b146112cd5760016112d0565b60025b90508215611477576112e281886130b9565b61147257600088121580156112f75750601888125b80156113a75750806002811115611337577f4e487b7100000000000000000000000000000000000000000000000000000000600052602160045260246000fd5b600960008960010154815260200190815260200160002060008a815260200190815260200160002060009054906101000a900460ff1660028111156113a5577f4e487b7100000000000000000000000000000000000000000000000000000000600052602160045260246000fd5b145b80156113bb57506113b9888289611fb1565b155b6113fa576040517f08c379a00000000000000000000000000000000000000000000000000000000081526004016113f1906145d0565b60405180910390fd5b6000600960008960010154815260200190815260200160002060008a815260200190815260200160002060006101000a81548160ff0219169083600281111561146c577f4e487b7100000000000000000000000000000000000000000000000000000000600052602160045260246000fd5b02179055505b6114bb565b600088126114ba576040517f08c379a00000000000000000000000000000000000000000000000000000000081526004016114b190614590565b60405180910390fd5b5b600760003373ffffffffffffffffffffffffffffffffffffffff1673ffffffffffffffffffffffffffffffffffffffff168152602001908152602001600020600081548092919061150b90614a15565b919050555086600001600081548092919061152590614a15565b9190505550601287600001541061195f576000611546886001015483611ec8565b9050600381108061155d575061155c82896131b4565b5b1561195d5760003390508073ffffffffffffffffffffffffffffffffffffffff166108fc60036004662386f26fc10000611597919061480e565b6115a1919061483f565b662386f26fc100006115b3919061474e565b9081150290604051600060405180830381858888f193505050501580156115de573d6000803e3d6000fd5b50600260008154809291906115f290614a15565b91905055506003600081548092919061160a90614a15565b9190505550600860003373ffffffffffffffffffffffffffffffffffffffff1673ffffffffffffffffffffffffffffffffffffffff168152602001908152602001600020600081548092919061165f90614a15565b919050555061166d89613906565b600193506005600354141561195b5760008060005b60048054905081101561185b5760076000600483815481106116cd577f4e487b7100000000000000000000000000000000000000000000000000000000600052603260045260246000fd5b9060005260206000200160009054906101000a900473ffffffffffffffffffffffffffffffffffffffff1673ffffffffffffffffffffffffffffffffffffffff1673ffffffffffffffffffffffffffffffffffffffff168152602001908152602001600020548210156118485760048181548110611774577f4e487b7100000000000000000000000000000000000000000000000000000000600052603260045260246000fd5b9060005260206000200160009054906101000a900473ffffffffffffffffffffffffffffffffffffffff16925060076000600483815481106117df577f4e487b7100000000000000000000000000000000000000000000000000000000600052603260045260246000fd5b9060005260206000200160009054906101000a900473ffffffffffffffffffffffffffffffffffffffff1673ffffffffffffffffffffffffffffffffffffffff1673ffffffffffffffffffffffffffffffffffffffff1681526020019081526020016000205491505b808061185390614a15565b915050611682565b5060008290508073ffffffffffffffffffffffffffffffffffffffff166108fc60056004662386f26fc10000611891919061480e565b61189b919061483f565b9081150290604051600060405180830381858888f193505050501580156118c6573d6000803e3d6000fd5b506000600760008573ffffffffffffffffffffffffffffffffffffffff1673ffffffffffffffffffffffffffffffffffffffff1681526020019081526020016000208190555060006003819055508273ffffffffffffffffffffffffffffffffffffffff167f7c02e6947c9e74a869d0837ff26c287146793dbcabfc2629c544950efefc955c60405160405180910390a25050505b505b505b3373ffffffffffffffffffffffffffffffffffffffff167f26fa50c2cefc8f9bc77687c07f901e96b5b82527c727bd46fcd28c6fd33fc84e8b8b8b6040516119a993929190614459565b60405180910390a281156119fb573373ffffffffffffffffffffffffffffffffffffffff167fc3a39f8631b261ea96aaead3940637315aa8778750aba3049dd32cb88dc25bae60405160405180910390a25b50505050505050505050565b60056020528060005260406000206000915090505481565b60096020528160005260406000206020528060005260406000206000915091509054906101000a900460ff1681565b6000600560003373ffffffffffffffffffffffffffffffffffffffff1673ffffffffffffffffffffffffffffffffffffffff1681526020019081526020016000205414611ad0576040517f08c379a0000000000000000000000000000000000000000000000000000000008152600401611ac7906145f0565b60405180910390fd5b662386f26fc100003414611b19576040517f08c379a0000000000000000000000000000000000000000000000000000000008152600401611b10906144b0565b60405180910390fd5b6000600680549050905060066040518060800160405280600081526020018381526020013373ffffffffffffffffffffffffffffffffffffffff168152602001600073ffffffffffffffffffffffffffffffffffffffff168152509080600181540180825580915050600190039060005260206000209060040201600090919091909150600082015181600001556020820151816001015560408201518160020160006101000a81548173ffffffffffffffffffffffffffffffffffffffff021916908373ffffffffffffffffffffffffffffffffffffffff16021790555060608201518160030160006101000a81548173ffffffffffffffffffffffffffffffffffffffff021916908373ffffffffffffffffffffffffffffffffffffffff1602179055505050600181611c4e919061474e565b600560003373ffffffffffffffffffffffffffffffffffffffff1673ffffffffffffffffffffffffffffffffffffffff1681526020019081526020016000208190555060016000815480929190611ca490614a15565b9190505550611cb233611d95565b3373ffffffffffffffffffffffffffffffffffffffff167f67cf7f1535e1c1323fe4e76266f7d55f0c1f67fdf449db65e014f9d35881514d60405160405180910390a250565b60006006600183611d09919061492d565b81548110611d40577f4e487b7100000000000000000000000000000000000000000000000000000000600052603260045260246000fd5b9060005260206000209060040201600101549050919050565b60076020528060005260406000206000915090505481565b60015481565b60035481565b60086020528060005260406000206000915090505481565b6000805b600480549050811015611e5a578273ffffffffffffffffffffffffffffffffffffffff1660048281548110611df7577f4e487b7100000000000000000000000000000000000000000000000000000000600052603260045260246000fd5b9060005260206000200160009054906101000a900473ffffffffffffffffffffffffffffffffffffffff1673ffffffffffffffffffffffffffffffffffffffff161415611e475760019150611e5a565b8080611e5290614a15565b915050611d99565b5080611ec4576004829080600181540180825580915050600190039060005260206000200160009091909190916101000a81548173ffffffffffffffffffffffffffffffffffffffff021916908373ffffffffffffffffffffffffffffffffffffffff1602179055505b5050565b6000806000905060005b6018811215611fa657836002811115611f14577f4e487b7100000000000000000000000000000000000000000000000000000000600052602160045260246000fd5b60096000878152602001908152602001600020600083815260200190815260200160002060009054906101000a900460ff166002811115611f7e577f4e487b7100000000000000000000000000000000000000000000000000000000600052602160045260246000fd5b1415611f93578180611f8f90614a15565b9250505b8080611f9e906149cc565b915050611ed2565b508091505092915050565b600080600885611fc19190614a5e565b90506000600886611fd291906147a4565b905060006001600284611fe59190614a5e565b14156127a2576007831480156120ab575085600281111561202f577f4e487b7100000000000000000000000000000000000000000000000000000000600052602160045260246000fd5b6009600087600101548152602001908152602001600020600060018a6120559190614899565b815260200190815260200160002060009054906101000a900460ff1660028111156120a9577f4e487b7100000000000000000000000000000000000000000000000000000000600052602160045260246000fd5b145b801561216757508560028111156120eb577f4e487b7100000000000000000000000000000000000000000000000000000000600052602160045260246000fd5b6009600087600101548152602001908152602001600020600060078a6121119190614899565b815260200190815260200160002060009054906101000a900460ff166002811115612165577f4e487b7100000000000000000000000000000000000000000000000000000000600052602160045260246000fd5b145b15612175576001905061279d565b60078312801561223557508560028111156121b9577f4e487b7100000000000000000000000000000000000000000000000000000000600052602160045260246000fd5b6009600087600101548152602001908152602001600020600060018a6121df9190614899565b815260200190815260200160002060009054906101000a900460ff166002811115612233577f4e487b7100000000000000000000000000000000000000000000000000000000600052602160045260246000fd5b145b80156122f15750856002811115612275577f4e487b7100000000000000000000000000000000000000000000000000000000600052602160045260246000fd5b6009600087600101548152602001908152602001600020600060018a61229b91906146ba565b815260200190815260200160002060009054906101000a900460ff1660028111156122ef577f4e487b7100000000000000000000000000000000000000000000000000000000600052602160045260246000fd5b145b156122ff576001905061279c565b6000821480156123bf5750856002811115612343577f4e487b7100000000000000000000000000000000000000000000000000000000600052602160045260246000fd5b6009600087600101548152602001908152602001600020600060088a61236991906146ba565b815260200190815260200160002060009054906101000a900460ff1660028111156123bd577f4e487b7100000000000000000000000000000000000000000000000000000000600052602160045260246000fd5b145b801561247b57508560028111156123ff577f4e487b7100000000000000000000000000000000000000000000000000000000600052602160045260246000fd5b6009600087600101548152602001908152602001600020600060108a61242591906146ba565b815260200190815260200160002060009054906101000a900460ff166002811115612479577f4e487b7100000000000000000000000000000000000000000000000000000000600052602160045260246000fd5b145b15612489576001905061279b565b60018214801561254957508560028111156124cd577f4e487b7100000000000000000000000000000000000000000000000000000000600052602160045260246000fd5b6009600087600101548152602001908152602001600020600060088a6124f39190614899565b815260200190815260200160002060009054906101000a900460ff166002811115612547577f4e487b7100000000000000000000000000000000000000000000000000000000600052602160045260246000fd5b145b80156126055750856002811115612589577f4e487b7100000000000000000000000000000000000000000000000000000000600052602160045260246000fd5b6009600087600101548152602001908152602001600020600060088a6125af91906146ba565b815260200190815260200160002060009054906101000a900460ff166002811115612603577f4e487b7100000000000000000000000000000000000000000000000000000000600052602160045260246000fd5b145b15612613576001905061279a565b6002821480156126d35750856002811115612657577f4e487b7100000000000000000000000000000000000000000000000000000000600052602160045260246000fd5b6009600087600101548152602001908152602001600020600060088a61267d9190614899565b815260200190815260200160002060009054906101000a900460ff1660028111156126d1577f4e487b7100000000000000000000000000000000000000000000000000000000600052602160045260246000fd5b145b801561278f5750856002811115612713577f4e487b7100000000000000000000000000000000000000000000000000000000600052602160045260246000fd5b6009600087600101548152602001908152602001600020600060108a6127399190614899565b815260200190815260200160002060009054906101000a900460ff16600281111561278d577f4e487b7100000000000000000000000000000000000000000000000000000000600052602160045260246000fd5b145b1561279957600190505b5b5b5b5b6130ac565b6000831415612aa9578560028111156127e4577f4e487b7100000000000000000000000000000000000000000000000000000000600052602160045260246000fd5b6009600087600101548152602001908152602001600020600060018a61280a91906146ba565b815260200190815260200160002060009054906101000a900460ff16600281111561285e577f4e487b7100000000000000000000000000000000000000000000000000000000600052602160045260246000fd5b14801561291b575085600281111561289f577f4e487b7100000000000000000000000000000000000000000000000000000000600052602160045260246000fd5b6009600087600101548152602001908152602001600020600060028a6128c591906146ba565b815260200190815260200160002060009054906101000a900460ff166002811115612919577f4e487b7100000000000000000000000000000000000000000000000000000000600052602160045260246000fd5b145b156129295760019050612aa4565b856002811115612962577f4e487b7100000000000000000000000000000000000000000000000000000000600052602160045260246000fd5b6009600087600101548152602001908152602001600020600060068a61298891906146ba565b815260200190815260200160002060009054906101000a900460ff1660028111156129dc577f4e487b7100000000000000000000000000000000000000000000000000000000600052602160045260246000fd5b148015612a995750856002811115612a1d577f4e487b7100000000000000000000000000000000000000000000000000000000600052602160045260246000fd5b6009600087600101548152602001908152602001600020600060078a612a4391906146ba565b815260200190815260200160002060009054906101000a900460ff166002811115612a97577f4e487b7100000000000000000000000000000000000000000000000000000000600052602160045260246000fd5b145b15612aa357600190505b5b6130ab565b6006831415612db057856002811115612aeb577f4e487b7100000000000000000000000000000000000000000000000000000000600052602160045260246000fd5b6009600087600101548152602001908152602001600020600060018a612b119190614899565b815260200190815260200160002060009054906101000a900460ff166002811115612b65577f4e487b7100000000000000000000000000000000000000000000000000000000600052602160045260246000fd5b148015612c225750856002811115612ba6577f4e487b7100000000000000000000000000000000000000000000000000000000600052602160045260246000fd5b6009600087600101548152602001908152602001600020600060028a612bcc9190614899565b815260200190815260200160002060009054906101000a900460ff166002811115612c20577f4e487b7100000000000000000000000000000000000000000000000000000000600052602160045260246000fd5b145b15612c305760019050612dab565b856002811115612c69577f4e487b7100000000000000000000000000000000000000000000000000000000600052602160045260246000fd5b6009600087600101548152602001908152602001600020600060018a612c8f91906146ba565b815260200190815260200160002060009054906101000a900460ff166002811115612ce3577f4e487b7100000000000000000000000000000000000000000000000000000000600052602160045260246000fd5b148015612da05750856002811115612d24577f4e487b7100000000000000000000000000000000000000000000000000000000600052602160045260246000fd5b6009600087600101548152602001908152602001600020600060068a612d4a9190614899565b815260200190815260200160002060009054906101000a900460ff166002811115612d9e577f4e487b7100000000000000000000000000000000000000000000000000000000600052602160045260246000fd5b145b15612daa57600190505b5b6130aa565b856002811115612de9577f4e487b7100000000000000000000000000000000000000000000000000000000600052602160045260246000fd5b6009600087600101548152602001908152602001600020600060018a612e0f91906146ba565b815260200190815260200160002060009054906101000a900460ff166002811115612e63577f4e487b7100000000000000000000000000000000000000000000000000000000600052602160045260246000fd5b148015612f205750856002811115612ea4577f4e487b7100000000000000000000000000000000000000000000000000000000600052602160045260246000fd5b6009600087600101548152602001908152602001600020600060028a612eca91906146ba565b815260200190815260200160002060009054906101000a900460ff166002811115612f1e577f4e487b7100000000000000000000000000000000000000000000000000000000600052602160045260246000fd5b145b15612f2e57600190506130a9565b856002811115612f67577f4e487b7100000000000000000000000000000000000000000000000000000000600052602160045260246000fd5b6009600087600101548152602001908152602001600020600060018a612f8d9190614899565b815260200190815260200160002060009054906101000a900460ff166002811115612fe1577f4e487b7100000000000000000000000000000000000000000000000000000000600052602160045260246000fd5b14801561309e5750856002811115613022577f4e487b7100000000000000000000000000000000000000000000000000000000600052602160045260246000fd5b6009600087600101548152602001908152602001600020600060028a6130489190614899565b815260200190815260200160002060009054906101000a900460ff16600281111561309c577f4e487b7100000000000000000000000000000000000000000000000000000000600052602160045260246000fd5b145b156130a857600190505b5b5b5b5b8093505050509392505050565b6000806001905060005b60188112156131a957846002811115613105577f4e487b7100000000000000000000000000000000000000000000000000000000600052602160045260246000fd5b6009600086600101548152602001908152602001600020600083815260200190815260200160002060009054906101000a900460ff166002811115613173577f4e487b7100000000000000000000000000000000000000000000000000000000600052602160045260246000fd5b1480156131885750613186818686611fb1565b155b1561319657600091506131a9565b80806131a1906149cc565b9150506130c3565b508091505092915050565b6000806001905060008060005b60188112156138f9576008816131d79190614a5e565b92506008816131e691906147a4565b9150866002811115613221577f4e487b7100000000000000000000000000000000000000000000000000000000600052602160045260246000fd5b6009600088600101548152602001908152602001600020600083815260200190815260200160002060009054906101000a900460ff16600281111561328f577f4e487b7100000000000000000000000000000000000000000000000000000000600052602160045260246000fd5b14156138e657600083141561341757600060028111156132d8577f4e487b7100000000000000000000000000000000000000000000000000000000600052602160045260246000fd5b600960008860010154815260200190815260200160002060006001846132fe91906146ba565b815260200190815260200160002060009054906101000a900460ff166002811115613352577f4e487b7100000000000000000000000000000000000000000000000000000000600052602160045260246000fd5b148061340f575060006002811115613393577f4e487b7100000000000000000000000000000000000000000000000000000000600052602160045260246000fd5b600960008860010154815260200190815260200160002060006007846133b991906146ba565b815260200190815260200160002060009054906101000a900460ff16600281111561340d577f4e487b7100000000000000000000000000000000000000000000000000000000600052602160045260246000fd5b145b1593506138db565b60078314801561359457506000600281111561345c577f4e487b7100000000000000000000000000000000000000000000000000000000600052602160045260246000fd5b6009600088600101548152602001908152602001600020600060018461348291906146ba565b815260200190815260200160002060009054906101000a900460ff1660028111156134d6577f4e487b7100000000000000000000000000000000000000000000000000000000600052602160045260246000fd5b1480613593575060006002811115613517577f4e487b7100000000000000000000000000000000000000000000000000000000600052602160045260246000fd5b6009600088600101548152602001908152602001600020600060078461353d9190614899565b815260200190815260200160002060009054906101000a900460ff166002811115613591577f4e487b7100000000000000000000000000000000000000000000000000000000600052602160045260246000fd5b145b5b156135a257600093506138da565b60078312801561371f5750600060028111156135e7577f4e487b7100000000000000000000000000000000000000000000000000000000600052602160045260246000fd5b6009600088600101548152602001908152602001600020600060018461360d91906146ba565b815260200190815260200160002060009054906101000a900460ff166002811115613661577f4e487b7100000000000000000000000000000000000000000000000000000000600052602160045260246000fd5b148061371e5750600060028111156136a2577f4e487b7100000000000000000000000000000000000000000000000000000000600052602160045260246000fd5b600960008860010154815260200190815260200160002060006001846136c89190614899565b815260200190815260200160002060009054906101000a900460ff16600281111561371c577f4e487b7100000000000000000000000000000000000000000000000000000000600052602160045260246000fd5b145b5b1561372d57600093506138d9565b600160028461373c9190614a5e565b1480156138ce5750600282128015613805575060006002811115613789577f4e487b7100000000000000000000000000000000000000000000000000000000600052602160045260246000fd5b600960008860010154815260200190815260200160002060006008846137af91906146ba565b815260200190815260200160002060009054906101000a900460ff166002811115613803577f4e487b7100000000000000000000000000000000000000000000000000000000600052602160045260246000fd5b145b806138cd57506000821380156138cc575060006002811115613850577f4e487b7100000000000000000000000000000000000000000000000000000000600052602160045260246000fd5b600960008860010154815260200190815260200160002060006008846138769190614899565b815260200190815260200160002060009054906101000a900460ff1660028111156138ca577f4e487b7100000000000000000000000000000000000000000000000000000000600052602160045260246000fd5b145b5b5b156138d857600093505b5b5b5b836138e5576138f9565b5b80806138f1906149cc565b9150506131c1565b5082935050505092915050565b60008160010154905060006001600680549050613923919061492d565b90506000600560008560020160009054906101000a900473ffffffffffffffffffffffffffffffffffffffff1673ffffffffffffffffffffffffffffffffffffffff1673ffffffffffffffffffffffffffffffffffffffff168152602001908152602001600020819055506000600560008560030160009054906101000a900473ffffffffffffffffffffffffffffffffffffffff1673ffffffffffffffffffffffffffffffffffffffff1673ffffffffffffffffffffffffffffffffffffffff16815260200190815260200160002081905550600060068281548110613a33577f4e487b7100000000000000000000000000000000000000000000000000000000600052603260045260246000fd5b9060005260206000209060040201905082816001018190555060068381548110613a86577f4e487b7100000000000000000000000000000000000000000000000000000000600052603260045260246000fd5b906000526020600020906004020160008082016000905560018201600090556002820160006101000a81549073ffffffffffffffffffffffffffffffffffffffff02191690556003820160006101000a81549073ffffffffffffffffffffffffffffffffffffffff021916905550508060068481548110613b30577f4e487b7100000000000000000000000000000000000000000000000000000000600052603260045260246000fd5b906000526020600020906004020160008201548160000155600182015481600101556002820160009054906101000a900473ffffffffffffffffffffffffffffffffffffffff168160020160006101000a81548173ffffffffffffffffffffffffffffffffffffffff021916908373ffffffffffffffffffffffffffffffffffffffff1602179055506003820160009054906101000a900473ffffffffffffffffffffffffffffffffffffffff168160030160006101000a81548173ffffffffffffffffffffffffffffffffffffffff021916908373ffffffffffffffffffffffffffffffffffffffff1602179055509050506006805480613c5b577f4e487b7100000000000000000000000000000000000000000000000000000000600052603160045260246000fd5b600190038181906000526020600020906004020160008082016000905560018201600090556002820160006101000a81549073ffffffffffffffffffffffffffffffffffffffff02191690556003820160006101000a81549073ffffffffffffffffffffffffffffffffffffffff02191690555050905560005b6018811215613e075760096000848152602001908152602001600020600082815260200190815260200160002060009054906101000a900460ff1660096000868152602001908152602001600020600083815260200190815260200160002060006101000a81548160ff02191690836002811115613d7c577f4e487b7100000000000000000000000000000000000000000000000000000000600052602160045260246000fd5b0217905550600060096000858152602001908152602001600020600083815260200190815260200160002060006101000a81548160ff02191690836002811115613def577f4e487b7100000000000000000000000000000000000000000000000000000000600052602160045260246000fd5b02179055508080613dff906149cc565b915050613cd5565b5060018160010154613e19919061474e565b600560008360020160009054906101000a900473ffffffffffffffffffffffffffffffffffffffff1673ffffffffffffffffffffffffffffffffffffffff1673ffffffffffffffffffffffffffffffffffffffff1681526020019081526020016000208190555060018160010154613e91919061474e565b600560008360030160009054906101000a900473ffffffffffffffffffffffffffffffffffffffff1673ffffffffffffffffffffffffffffffffffffffff1673ffffffffffffffffffffffffffffffffffffffff1681526020019081526020016000208190555050505050565b600081359050613f0d81614b61565b92915050565b600081359050613f2281614b78565b92915050565b600081359050613f3781614b8f565b92915050565b600060208284031215613f4f57600080fd5b6000613f5d84828501613efe565b91505092915050565b600080600060608486031215613f7b57600080fd5b6000613f8986828701613f13565b9350506020613f9a86828701613f13565b9250506040613fab86828701613f13565b9150509250925092565b600060208284031215613fc757600080fd5b6000613fd584828501613f28565b91505092915050565b60008060408385031215613ff157600080fd5b6000613fff85828601613f28565b925050602061401085828601613f13565b9150509250929050565b6000614026838361409f565b60208301905092915050565b61403b81614961565b82525050565b600061404c82614680565b6140568185614698565b935061406183614670565b8060005b83811015614092578151614079888261401a565b97506140848361468b565b925050600181019050614065565b5085935050505092915050565b6140a8816149ba565b82525050565b6140b7816149ba565b82525050565b6140c681614986565b82525050565b60006140d96018836146a9565b91507f4f706f6e656e7420686173206e6f206f70656e2067616d6500000000000000006000830152602082019050919050565b60006141196011836146a9565b91507f47616d6520636f7374206e6f74206d65740000000000000000000000000000006000830152602082019050919050565b60006141596017836146a9565b91507f4e6f7420612076616c696420746f20706f736974696f6e0000000000000000006000830152602082019050919050565b60006141996017836146a9565b91507f47616d6520616c726561647920696e2070726f677265730000000000000000006000830152602082019050919050565b60006141d96021836146a9565b91507f4d6f76696e67206e6f7420616c6c6f776564206265666f7265207475726e203160008301527f38000000000000000000000000000000000000000000000000000000000000006020830152604082019050919050565b600061423f6014836146a9565b91507f4e6f7420612076616c69642066726f6d20706f730000000000000000000000006000830152602082019050919050565b600061427f600e836146a9565b91507f4e6f206163746976652067616d650000000000000000000000000000000000006000830152602082019050919050565b60006142bf6010836146a9565b91507f4d6f7665206e6f7420616c6c6f776564000000000000000000000000000000006000830152602082019050919050565b60006142ff6012836146a9565b91507f72656d6f7665206e6f7420616c6c6f77656400000000000000000000000000006000830152602082019050919050565b600061433f600d836146a9565b91507f4e6f7420796f7572207475726e000000000000000000000000000000000000006000830152602082019050919050565b600061437f6013836146a9565b91507f52656d6f7665206e6f7420706f737369626c65000000000000000000000000006000830152602082019050919050565b60006143bf600f836146a9565b91507f416c726561647920706c6179696e6700000000000000000000000000000000006000830152602082019050919050565b6143fb816149b0565b82525050565b60006020820190506144166000830184614032565b92915050565b600060208201905081810360008301526144368184614041565b905092915050565b600060208201905061445360008301846140ae565b92915050565b600060608201905061446e60008301866140bd565b61447b60208301856140bd565b61448860408301846140bd565b949350505050565b600060208201905081810360008301526144a9816140cc565b9050919050565b600060208201905081810360008301526144c98161410c565b9050919050565b600060208201905081810360008301526144e98161414c565b9050919050565b600060208201905081810360008301526145098161418c565b9050919050565b60006020820190508181036000830152614529816141cc565b9050919050565b6000602082019050818103600083015261454981614232565b9050919050565b6000602082019050818103600083015261456981614272565b9050919050565b60006020820190508181036000830152614589816142b2565b9050919050565b600060208201905081810360008301526145a9816142f2565b9050919050565b600060208201905081810360008301526145c981614332565b9050919050565b600060208201905081810360008301526145e981614372565b9050919050565b60006020820190508181036000830152614609816143b2565b9050919050565b600060208201905061462560008301846143f2565b92915050565b600060808201905061464060008301876143f2565b61464d60208301866143f2565b61465a6040830185614032565b6146676060830184614032565b95945050505050565b6000819050602082019050919050565b600081519050919050565b6000602082019050919050565b600082825260208201905092915050565b600082825260208201905092915050565b60006146c582614986565b91506146d083614986565b9250817f7fffffffffffffffffffffffffffffffffffffffffffffffffffffffffffffff0383136000831215161561470b5761470a614ac0565b5b817f800000000000000000000000000000000000000000000000000000000000000003831260008312161561474357614742614ac0565b5b828201905092915050565b6000614759826149b0565b9150614764836149b0565b9250827fffffffffffffffffffffffffffffffffffffffffffffffffffffffffffffffff0382111561479957614798614ac0565b5b828201905092915050565b60006147af82614986565b91506147ba83614986565b9250826147ca576147c9614aef565b5b600160000383147f80000000000000000000000000000000000000000000000000000000000000008314161561480357614802614ac0565b5b828205905092915050565b6000614819826149b0565b9150614824836149b0565b92508261483457614833614aef565b5b828204905092915050565b600061484a826149b0565b9150614855836149b0565b9250817fffffffffffffffffffffffffffffffffffffffffffffffffffffffffffffffff048311821515161561488e5761488d614ac0565b5b828202905092915050565b60006148a482614986565b91506148af83614986565b9250827f8000000000000000000000000000000000000000000000000000000000000000018212600084121516156148ea576148e9614ac0565b5b827f7fffffffffffffffffffffffffffffffffffffffffffffffffffffffffffffff01821360008412161561492257614921614ac0565b5b828203905092915050565b6000614938826149b0565b9150614943836149b0565b92508282101561495657614955614ac0565b5b828203905092915050565b600061496c82614990565b9050919050565b600081905061498182614b4d565b919050565b6000819050919050565b600073ffffffffffffffffffffffffffffffffffffffff82169050919050565b6000819050919050565b60006149c582614973565b9050919050565b60006149d782614986565b91507f7fffffffffffffffffffffffffffffffffffffffffffffffffffffffffffffff821415614a0a57614a09614ac0565b5b600182019050919050565b6000614a20826149b0565b91507fffffffffffffffffffffffffffffffffffffffffffffffffffffffffffffffff821415614a5357614a52614ac0565b5b600182019050919050565b6000614a6982614986565b9150614a7483614986565b925082614a8457614a83614aef565b5b828207905092915050565b6000614a9a826149b0565b9150614aa5836149b0565b925082614ab557614ab4614aef565b5b828206905092915050565b7f4e487b7100000000000000000000000000000000000000000000000000000000600052601160045260246000fd5b7f4e487b7100000000000000000000000000000000000000000000000000000000600052601260045260246000fd5b7f4e487b7100000000000000000000000000000000000000000000000000000000600052602160045260246000fd5b60038110614b5e57614b5d614b1e565b5b50565b614b6a81614961565b8114614b7557600080fd5b50565b614b8181614986565b8114614b8c57600080fd5b50565b614b98816149b0565b8114614ba357600080fd5b5056fea26469706673582212201697717043c2122b66b19878ee4882a1c34b05a365e770e3753f743f2c1365a664736f6c63430008000033",
  "immutableReferences": {},
  "source": "// SPDX-License-Identifier: MIT\r\npragma solidity >=0.8.0 <0.9.0;\r\n\r\ncontract Merels {\r\n    uint256 constant GAME_COST = 10000000 gwei;\r\n    uint256 constant MIN_FINSIHED_GAMES_BFORE_LOTTERY = 5;\r\n    enum COLORS {UNDEFINED, WHITE, BLACK}\r\n\r\n    address private owner;\r\n\r\n    struct Game {\r\n        uint256 round;\r\n        uint256 index;\r\n        address white;\r\n        address black;\r\n    }\r\n\r\n    uint256 public activeGames;\r\n    uint256 public finishedGames;\r\n    uint256 public finishedGamesSinceLastPayout;\r\n\r\n    address[] public allPlayers;\r\n\r\n    /*\r\n        mapping for quicker access to own Game\r\n    */\r\n    mapping(address => uint256) public gameNumberByAddress;\r\n\r\n    /*\r\n     * list of all games\r\n     */\r\n    Game[] public games;\r\n\r\n    mapping(address => uint256) public roundsPlayedByAddress;\r\n\r\n    mapping(address => uint256) public gamesWonByAddress;\r\n\r\n    /*\r\n     * played positions\r\n     */\r\n    mapping(uint256 => mapping(int256 => COLORS)) public positions;\r\n\r\n    //Event game started\r\n    event GameStarted(address indexed _sender);\r\n\r\n    //Event game joined\r\n    event GameJoined(address indexed _sender, address indexed _joined);\r\n\r\n    //Event made move\r\n    event MadeMove(\r\n        address indexed _sender,\r\n        int256 _toPos,\r\n        int256 _fromPos,\r\n        int256 _removePos\r\n    );\r\n\r\n    //Event WON\r\n    event WonGame(address indexed _sender);\r\n\r\n    //Event WON\r\n    event LuckyPlayer(address indexed _sender);\r\n\r\n    /**\r\n     * @dev Set contract deployer as owner\r\n     */\r\n    constructor() {\r\n        owner = msg.sender;\r\n    }\r\n\r\n    function startGame() public payable {\r\n        require(gameNumberByAddress[msg.sender] == 0, \"Already playing\");\r\n        require(msg.value == GAME_COST, \"Game cost not met\");\r\n        uint256 index = games.length;\r\n        games.push(\r\n            Game({round: 0, index: index, white: msg.sender, black: address(0)})\r\n        );\r\n        gameNumberByAddress[msg.sender] = index + 1;\r\n        activeGames++;\r\n        addPlayerToPlayerList(msg.sender);\r\n\r\n        emit GameStarted(msg.sender);\r\n    }\r\n\r\n    function joinGame(address oponent) public payable {\r\n        require(gameNumberByAddress[msg.sender] == 0, \"Already playing\");\r\n        require(gameNumberByAddress[oponent] > 0, \"Oponent has no open game\");\r\n        require(msg.value == GAME_COST, \"Game cost not met\");\r\n        uint256 index = gameNumberByAddress[oponent] - 1;\r\n        require(games[index].black == address(0), \"Game already in progres\");\r\n        games[index].black = msg.sender;\r\n        gameNumberByAddress[msg.sender] = gameNumberByAddress[oponent];\r\n        addPlayerToPlayerList(msg.sender);\r\n        emit GameJoined(msg.sender, oponent);\r\n    }\r\n\r\n    function makeMove(\r\n        int256 toPos,\r\n        int256 fromPos,\r\n        int256 removePos\r\n    ) public payable {\r\n        require(gameNumberByAddress[msg.sender] > 0, \"No active game\");\r\n        //require(msg.value > 100, \"100 required to join a game\");\r\n        Game storage game = games[gameNumberByAddress[msg.sender] - 1];\r\n        COLORS ownColor =\r\n            game.white == msg.sender ? COLORS.WHITE : COLORS.BLACK;\r\n        require(\r\n            (ownColor == COLORS.WHITE) == (game.round % 2 == 0),\r\n            \"Not your turn\"\r\n        );\r\n\r\n        require(\r\n            toPos >= 0 &&\r\n                toPos < 24 &&\r\n                positions[game.index][toPos] == COLORS.UNDEFINED,\r\n            \"Not a valid to position\"\r\n        );\r\n        int256 posInCircle = toPos % 8;\r\n        int256 circle = toPos / 8;\r\n\r\n        if (game.round < 18) {\r\n            require(fromPos < 0, \"Moving not allowed before turn 18\");\r\n            positions[game.index][toPos] = ownColor;\r\n        } else {\r\n            require(\r\n                fromPos >= 0 &&\r\n                    fromPos < 24 &&\r\n                    positions[game.index][fromPos] == ownColor,\r\n                \"Not a valid from pos\"\r\n            );\r\n            uint256 ownCount = countColor(game.index, ownColor);\r\n            if (ownCount > 3) {\r\n                int256 fromPosInCircle = fromPos % 8;\r\n                int256 fromCircle = fromPos / 8;\r\n                if (fromCircle == circle) {\r\n                    int256 dif = posInCircle - fromPosInCircle;\r\n                    require(dif == 1 || dif == -1 ||\r\n                            (fromPosInCircle == 7 && posInCircle == 0) ||\r\n                            (fromPosInCircle == 0 && posInCircle == 7),\r\n                        \"Move not allowed\"\r\n                    );\r\n                } else {\r\n                    require((fromCircle - circle == 1 || fromCircle - circle == -1) &&\r\n                            fromPosInCircle == posInCircle && fromPosInCircle % 2 == 1,\r\n                        \"Move not allowed\"\r\n                    );\r\n                }\r\n            }\r\n\r\n            positions[game.index][fromPos] = COLORS.UNDEFINED;\r\n            positions[game.index][toPos] = ownColor;\r\n        }\r\n\r\n        bool ownerHasMill = checkMill(toPos, ownColor, game);\r\n\r\n        bool won = false;\r\n        COLORS oponentColor = ownColor == COLORS.WHITE ? COLORS.BLACK : COLORS.WHITE;\r\n        if (ownerHasMill) {\r\n            if(!oponentHasOnlyMills(oponentColor, game))\r\n            {\r\n                require(\r\n                    removePos >= 0 &&\r\n                        removePos < 24 &&\r\n                        positions[game.index][removePos] == oponentColor &&\r\n                        !checkMill(removePos, oponentColor, game),\r\n                    \"Remove not possible\"\r\n                );\r\n                positions[game.index][removePos] = COLORS.UNDEFINED;\r\n            }\r\n        } else {\r\n            require(removePos < 0, \"remove not allowed\");\r\n        }\r\n        \r\n        roundsPlayedByAddress[msg.sender]++;\r\n        game.round++;\r\n        if (game.round >= 18) {\r\n            uint256 countOponent = countColor(game.index, oponentColor);\r\n            if (countOponent < 3 || oponentCannotMove(oponentColor, game)) {\r\n                // WON! so we pay out\r\n                address payable winner = payable(msg.sender);\r\n                winner.transfer(GAME_COST + GAME_COST / 4 * 3);\r\n                finishedGames++;\r\n                finishedGamesSinceLastPayout++;\r\n                gamesWonByAddress[msg.sender]++;\r\n                cleanUpFinishedGame(game);\r\n                won = true;\r\n                if(finishedGamesSinceLastPayout == MIN_FINSIHED_GAMES_BFORE_LOTTERY)\r\n                {\r\n                    address mostPlayed = address(0);\r\n                    uint256 maxRounds = 0;\r\n                    for(uint256 i = 0; i < allPlayers.length; i++)\r\n                    {\r\n                        if(maxRounds < roundsPlayedByAddress[allPlayers[i]])\r\n                        {\r\n                            mostPlayed = allPlayers[i];\r\n                            maxRounds = roundsPlayedByAddress[allPlayers[i]];\r\n                        }\r\n                        \r\n                    }\r\n                    address payable lucky = payable(mostPlayed);\r\n                    lucky.transfer(GAME_COST / 4 * MIN_FINSIHED_GAMES_BFORE_LOTTERY);\r\n                    roundsPlayedByAddress[mostPlayed] = 0;\r\n                    finishedGamesSinceLastPayout = 0;\r\n                    emit LuckyPlayer(mostPlayed);\r\n                }\r\n            }\r\n        }\r\n\r\n        emit MadeMove(msg.sender, toPos, fromPos, removePos);\r\n        if (won) {\r\n            emit WonGame(msg.sender);\r\n        }\r\n    }\r\n\r\n    function addPlayerToPlayerList(address player) private {\r\n        bool found = false;\r\n        for (uint256 i = 0; i < allPlayers.length; i++) {\r\n            if (allPlayers[i] == player) {\r\n                found = true;\r\n                break;\r\n            }\r\n        }\r\n        if (!found) {\r\n            allPlayers.push(player);\r\n        }\r\n    }\r\n\r\n    function cleanUpFinishedGame(Game storage game) private {\r\n        uint256 gameIndex = game.index;\r\n        uint256 lastIndex = games.length - 1;\r\n        gameNumberByAddress[game.white] = 0;\r\n        gameNumberByAddress[game.black] = 0;\r\n        Game storage last = games[lastIndex];\r\n        last.index = gameIndex;\r\n        delete games[gameIndex];\r\n        games[gameIndex] = last;\r\n        games.pop();\r\n\r\n        for (int256 i = 0; i < 24; i++) {\r\n            positions[gameIndex][i] = positions[lastIndex][i];\r\n            positions[lastIndex][i] = COLORS.UNDEFINED;\r\n        }\r\n\r\n        gameNumberByAddress[last.white] = last.index + 1;\r\n        gameNumberByAddress[last.black] = last.index + 1;\r\n    }\r\n\r\n    function oponentCannotMove(COLORS color,\r\n        Game storage game) private view returns (bool) {\r\n        bool isTrue = true;\r\n        int256 posInCircle = 0;\r\n        int256 circle = 0;\r\n        for (int256 i = 0; i < 24; i++) {\r\n            posInCircle = i % 8;\r\n            circle = i / 8;\r\n            if (positions[game.index][i] == color) {\r\n                if(posInCircle == 0)\r\n                {\r\n                    isTrue = !(positions[game.index][i+1] == COLORS.UNDEFINED || positions[game.index][i+7] == COLORS.UNDEFINED);\r\n                }\r\n                else if(posInCircle == 7 && (positions[game.index][i+1] == COLORS.UNDEFINED || positions[game.index][i-7] == COLORS.UNDEFINED))\r\n                {\r\n                    isTrue = false;\r\n                }\r\n                else if(posInCircle < 7 && (positions[game.index][i+1] == COLORS.UNDEFINED || positions[game.index][i-1] == COLORS.UNDEFINED))\r\n                {\r\n                    isTrue = false;\r\n                }\r\n                else if(posInCircle % 2 == 1 && ((circle < 2 && positions[game.index][i+8] == COLORS.UNDEFINED) || (circle > 0 && positions[game.index][i-8] == COLORS.UNDEFINED)))\r\n                {                    \r\n                    isTrue = false;\r\n                }\r\n                if(!isTrue)\r\n                {\r\n                    break;\r\n                }\r\n            }\r\n        }\r\n        return isTrue;\r\n    }\r\n\r\n    function oponentHasOnlyMills(COLORS color,\r\n        Game storage game) private view returns (bool) {\r\n        bool isTrue = true;\r\n        for (int256 i = 0; i < 24; i++) {\r\n            if (positions[game.index][i] == color && !checkMill(i, color, game)) {\r\n                isTrue = false;\r\n                break;\r\n            }\r\n        }\r\n        return isTrue;\r\n    }\r\n\r\n    function checkMill(\r\n        int256 pos,\r\n        COLORS color,\r\n        Game storage game\r\n    ) private view returns (bool) {\r\n        int256 posInCircle = pos % 8;\r\n        int256 circle = pos / 8;\r\n        bool isMill = false;\r\n        if (posInCircle % 2 == 1) {\r\n            if (\r\n                posInCircle == 7 &&\r\n                positions[game.index][pos - 1] == color &&\r\n                positions[game.index][pos - 7] == color\r\n            ) {\r\n                isMill = true;\r\n            } else if (\r\n                posInCircle < 7 &&\r\n                positions[game.index][pos - 1] == color &&\r\n                positions[game.index][pos + 1] == color\r\n            ) {\r\n                isMill = true;\r\n            } else if (\r\n                circle == 0 &&\r\n                positions[game.index][pos + 8] == color &&\r\n                positions[game.index][pos + 16] == color\r\n            ) {\r\n                isMill = true;\r\n            } else if (\r\n                circle == 1 &&\r\n                positions[game.index][pos - 8] == color &&\r\n                positions[game.index][pos + 8] == color\r\n            ) {\r\n                isMill = true;\r\n            } else if (\r\n                circle == 2 &&\r\n                positions[game.index][pos - 8] == color &&\r\n                positions[game.index][pos - 16] == color\r\n            ) {\r\n                isMill = true;\r\n            }\r\n        } else if (posInCircle == 0) {\r\n            if (\r\n                positions[game.index][pos + 1] == color &&\r\n                positions[game.index][pos + 2] == color\r\n            ) {\r\n                isMill = true;\r\n            } else if (\r\n                positions[game.index][pos + 6] == color &&\r\n                positions[game.index][pos + 7] == color\r\n            ) {\r\n                isMill = true;\r\n            }\r\n        } else if (posInCircle == 6) {\r\n            if (\r\n                positions[game.index][pos - 1] == color &&\r\n                positions[game.index][pos - 2] == color\r\n            ) {\r\n                isMill = true;\r\n            } else if (\r\n                positions[game.index][pos + 1] == color &&\r\n                positions[game.index][pos - 6] == color\r\n            ) {\r\n                isMill = true;\r\n            }\r\n        } else {\r\n            if (\r\n                positions[game.index][pos + 1] == color &&\r\n                positions[game.index][pos + 2] == color\r\n            ) {\r\n                isMill = true;\r\n            } else if (\r\n                positions[game.index][pos - 1] == color &&\r\n                positions[game.index][pos - 2] == color\r\n            ) {\r\n                isMill = true;\r\n            }\r\n        }\r\n        return isMill;\r\n    }\r\n\r\n    function countColor(uint256 gameIndex, COLORS color)\r\n        private\r\n        view\r\n        returns (uint256)\r\n    {\r\n        uint256 count = 0;\r\n        for (int256 i = 0; i < 24; i++) {\r\n            if (positions[gameIndex][i] == color) {\r\n                count++;\r\n            }\r\n        }\r\n        return count;\r\n    }\r\n\r\n    function getGamesIndex(uint256 gameNumber) view public returns (uint256) {\r\n        return games[gameNumber-1].index;\r\n    }\r\n\r\n    function getPositions(uint256 gameNumber) view public returns (COLORS[] memory)\r\n    {\r\n        COLORS[] memory tempPositions = new  COLORS[](24);\r\n        if(games.length >= gameNumber)\r\n        {\r\n            Game storage game = games[gameNumber -1];\r\n            for(int256 i = 0; i < 24; i++)\r\n            {\r\n                tempPositions[uint(i)] = positions[game.index][i];\r\n            }\r\n        }\r\n        return tempPositions;\r\n    }\r\n\r\n    function gameCount() public view returns (uint256) {\r\n        return games.length;\r\n    }\r\n}\r\n",
  "sourcePath": "D:/Webdevelopment/SmartContracts/merelsOnTheBlockchain/blockchain/contracts/Merels.sol",
  "compiler": {
    "name": "solc",
    "version": "0.8.0+commit.c7dfd78e.Emscripten.clang"
  },
  "schemaVersion": "3.4.0",
  "updatedAt": "2021-05-02T08:11:01.533Z",
  "networkType": "ethereum",
  "devdoc": {
    "kind": "dev",
    "methods": {
      "constructor": {
        "details": "Set contract deployer as owner"
      }
    },
    "version": 1
  },
  "userdoc": {
    "kind": "user",
    "methods": {},
    "version": 1
  }
}