{
  "contractName": "Merels",
  "abi": [
    {
      "inputs": [],
      "stateMutability": "nonpayable",
      "type": "constructor"
    },
    {
      "anonymous": false,
      "inputs": [
        {
          "indexed": true,
          "internalType": "address",
          "name": "_sender",
          "type": "address"
        },
        {
          "indexed": true,
          "internalType": "address",
          "name": "_joined",
          "type": "address"
        }
      ],
      "name": "GameJoined",
      "type": "event"
    },
    {
      "anonymous": false,
      "inputs": [
        {
          "indexed": true,
          "internalType": "address",
          "name": "_sender",
          "type": "address"
        }
      ],
      "name": "GameStarted",
      "type": "event"
    },
    {
      "anonymous": false,
      "inputs": [
        {
          "indexed": true,
          "internalType": "address",
          "name": "_sender",
          "type": "address"
        }
      ],
      "name": "LuckyPlayer",
      "type": "event"
    },
    {
      "anonymous": false,
      "inputs": [
        {
          "indexed": true,
          "internalType": "address",
          "name": "_sender",
          "type": "address"
        },
        {
          "indexed": false,
          "internalType": "int256",
          "name": "_toPos",
          "type": "int256"
        },
        {
          "indexed": false,
          "internalType": "int256",
          "name": "_fromPos",
          "type": "int256"
        },
        {
          "indexed": false,
          "internalType": "int256",
          "name": "_removePos",
          "type": "int256"
        }
      ],
      "name": "MadeMove",
      "type": "event"
    },
    {
      "anonymous": false,
      "inputs": [
        {
          "indexed": true,
          "internalType": "address",
          "name": "_sender",
          "type": "address"
        }
      ],
      "name": "WonGame",
      "type": "event"
    },
    {
      "inputs": [],
      "name": "activeGames",
      "outputs": [
        {
          "internalType": "uint256",
          "name": "",
          "type": "uint256"
        }
      ],
      "stateMutability": "view",
      "type": "function",
      "constant": true
    },
    {
      "inputs": [
        {
          "internalType": "uint256",
          "name": "",
          "type": "uint256"
        }
      ],
      "name": "allPlayers",
      "outputs": [
        {
          "internalType": "address",
          "name": "",
          "type": "address"
        }
      ],
      "stateMutability": "view",
      "type": "function",
      "constant": true
    },
    {
      "inputs": [],
      "name": "finishedGames",
      "outputs": [
        {
          "internalType": "uint256",
          "name": "",
          "type": "uint256"
        }
      ],
      "stateMutability": "view",
      "type": "function",
      "constant": true
    },
    {
      "inputs": [],
      "name": "finishedGamesSinceLastPayout",
      "outputs": [
        {
          "internalType": "uint256",
          "name": "",
          "type": "uint256"
        }
      ],
      "stateMutability": "view",
      "type": "function",
      "constant": true
    },
    {
      "inputs": [
        {
          "internalType": "address",
          "name": "",
          "type": "address"
        }
      ],
      "name": "gameNumberByAddress",
      "outputs": [
        {
          "internalType": "uint256",
          "name": "",
          "type": "uint256"
        }
      ],
      "stateMutability": "view",
      "type": "function",
      "constant": true
    },
    {
      "inputs": [
        {
          "internalType": "uint256",
          "name": "",
          "type": "uint256"
        }
      ],
      "name": "games",
      "outputs": [
        {
          "internalType": "uint256",
          "name": "round",
          "type": "uint256"
        },
        {
          "internalType": "uint256",
          "name": "index",
          "type": "uint256"
        },
        {
          "internalType": "address",
          "name": "white",
          "type": "address"
        },
        {
          "internalType": "address",
          "name": "black",
          "type": "address"
        }
      ],
      "stateMutability": "view",
      "type": "function",
      "constant": true
    },
    {
      "inputs": [
        {
          "internalType": "address",
          "name": "",
          "type": "address"
        }
      ],
      "name": "gamesWonByAddress",
      "outputs": [
        {
          "internalType": "uint256",
          "name": "",
          "type": "uint256"
        }
      ],
      "stateMutability": "view",
      "type": "function",
      "constant": true
    },
    {
      "inputs": [
        {
          "internalType": "uint256",
          "name": "",
          "type": "uint256"
        },
        {
          "internalType": "int256",
          "name": "",
          "type": "int256"
        }
      ],
      "name": "positions",
      "outputs": [
        {
          "internalType": "enum Merels.COLORS",
          "name": "",
          "type": "uint8"
        }
      ],
      "stateMutability": "view",
      "type": "function",
      "constant": true
    },
    {
      "inputs": [
        {
          "internalType": "address",
          "name": "",
          "type": "address"
        }
      ],
      "name": "roundsPlayedByAddress",
      "outputs": [
        {
          "internalType": "uint256",
          "name": "",
          "type": "uint256"
        }
      ],
      "stateMutability": "view",
      "type": "function",
      "constant": true
    },
    {
      "inputs": [],
      "name": "startGame",
      "outputs": [],
      "stateMutability": "payable",
      "type": "function",
      "payable": true
    },
    {
      "inputs": [
        {
          "internalType": "address",
          "name": "oponent",
          "type": "address"
        }
      ],
      "name": "joinGame",
      "outputs": [],
      "stateMutability": "payable",
      "type": "function",
      "payable": true
    },
    {
      "inputs": [
        {
          "internalType": "int256",
          "name": "toPos",
          "type": "int256"
        },
        {
          "internalType": "int256",
          "name": "fromPos",
          "type": "int256"
        },
        {
          "internalType": "int256",
          "name": "removePos",
          "type": "int256"
        }
      ],
      "name": "makeMove",
      "outputs": [],
      "stateMutability": "payable",
      "type": "function",
      "payable": true
    },
    {
      "inputs": [
        {
          "internalType": "uint256",
          "name": "gameNumber",
          "type": "uint256"
        }
      ],
      "name": "getGamesIndex",
      "outputs": [
        {
          "internalType": "uint256",
          "name": "",
          "type": "uint256"
        }
      ],
      "stateMutability": "view",
      "type": "function",
      "constant": true
    },
    {
      "inputs": [
        {
          "internalType": "uint256",
          "name": "gameNumber",
          "type": "uint256"
        }
      ],
      "name": "getPositions",
      "outputs": [
        {
          "internalType": "enum Merels.COLORS[]",
          "name": "",
          "type": "uint8[]"
        }
      ],
      "stateMutability": "view",
      "type": "function",
      "constant": true
    },
    {
      "inputs": [],
      "name": "gameCount",
      "outputs": [
        {
          "internalType": "uint256",
          "name": "",
          "type": "uint256"
        }
      ],
      "stateMutability": "view",
      "type": "function",
      "constant": true
    }
  ],
  "bytecode": "0x608060405234801561001057600080fd5b50336000806101000a81548173ffffffffffffffffffffffffffffffffffffffff021916908373ffffffffffffffffffffffffffffffffffffffff160217905550614e46806100606000396000f3fe6080604052600436106100e85760003560e01c806394f7060b1161008a578063e27be60f11610059578063e27be60f146102f6578063e475222e14610333578063e50d1ad71461035e578063edcf196914610389576100e8565b806394f7060b14610235578063aac5cd9b14610272578063d65ab5f2146102af578063db8d67f6146102b9576100e8565b80632389a290116100c65780632389a2901461019557806330e00596146101b15780634d1975b4146101ee5780638d34bba414610219576100e8565b80630544ce5e146100ed578063113634951461012a578063117a5b9014610155575b600080fd5b3480156100f957600080fd5b50610114600480360381019061010f9190614135565b6103c6565b6040516101219190614601565b60405180910390f35b34801561013657600080fd5b5061013f610405565b60405161014c9190614850565b60405180910390f35b34801561016157600080fd5b5061017c60048036038101906101779190614135565b61040b565b60405161018c949392919061486b565b60405180910390f35b6101af60048036038101906101aa91906140bd565b61048b565b005b3480156101bd57600080fd5b506101d860048036038101906101d39190614135565b610996565b6040516101e5919061461c565b60405180910390f35b3480156101fa57600080fd5b50610203610b88565b6040516102109190614850565b60405180910390f35b610233600480360381019061022e91906140e6565b610b95565b005b34801561024157600080fd5b5061025c600480360381019061025791906140bd565b611b27565b6040516102699190614850565b60405180910390f35b34801561027e57600080fd5b506102996004803603810190610294919061415e565b611b3f565b6040516102a6919061463e565b60405180910390f35b6102b7611b6e565b005b3480156102c557600080fd5b506102e060048036038101906102db9190614135565b611e18565b6040516102ed9190614850565b60405180910390f35b34801561030257600080fd5b5061031d600480360381019061031891906140bd565b611e79565b60405161032a9190614850565b60405180910390f35b34801561033f57600080fd5b50610348611e91565b6040516103559190614850565b60405180910390f35b34801561036a57600080fd5b50610373611e97565b6040516103809190614850565b60405180910390f35b34801561039557600080fd5b506103b060048036038101906103ab91906140bd565b611e9d565b6040516103bd9190614850565b60405180910390f35b600481815481106103d657600080fd5b906000526020600020016000915054906101000a900473ffffffffffffffffffffffffffffffffffffffff1681565b60025481565b6006818154811061041b57600080fd5b90600052602060002090600402016000915090508060000154908060010154908060020160009054906101000a900473ffffffffffffffffffffffffffffffffffffffff16908060030160009054906101000a900473ffffffffffffffffffffffffffffffffffffffff16905084565b6000600560003373ffffffffffffffffffffffffffffffffffffffff1673ffffffffffffffffffffffffffffffffffffffff168152602001908152602001600020541461050d576040517f08c379a000000000000000000000000000000000000000000000000000000000815260040161050490614830565b60405180910390fd5b6000600560008373ffffffffffffffffffffffffffffffffffffffff1673ffffffffffffffffffffffffffffffffffffffff168152602001908152602001600020541161058f576040517f08c379a000000000000000000000000000000000000000000000000000000000815260040161058690614690565b60405180910390fd5b662386f26fc1000034146105d8576040517f08c379a00000000000000000000000000000000000000000000000000000000081526004016105cf906146b0565b60405180910390fd5b60006001600560008473ffffffffffffffffffffffffffffffffffffffff1673ffffffffffffffffffffffffffffffffffffffff168152602001908152602001600020546106269190614b6d565b9050806006805490501161066f576040517f08c379a000000000000000000000000000000000000000000000000000000000815260040161066690614790565b60405180910390fd5b8173ffffffffffffffffffffffffffffffffffffffff16600682815481106106c0577f4e487b7100000000000000000000000000000000000000000000000000000000600052603260045260246000fd5b906000526020600020906004020160020160009054906101000a900473ffffffffffffffffffffffffffffffffffffffff1673ffffffffffffffffffffffffffffffffffffffff1614610748576040517f08c379a000000000000000000000000000000000000000000000000000000000815260040161073f90614810565b60405180910390fd5b600073ffffffffffffffffffffffffffffffffffffffff166006828154811061079a577f4e487b7100000000000000000000000000000000000000000000000000000000600052603260045260246000fd5b906000526020600020906004020160030160009054906101000a900473ffffffffffffffffffffffffffffffffffffffff1673ffffffffffffffffffffffffffffffffffffffff1614610822576040517f08c379a0000000000000000000000000000000000000000000000000000000008152600401610819906146f0565b60405180910390fd5b336006828154811061085d577f4e487b7100000000000000000000000000000000000000000000000000000000600052603260045260246000fd5b906000526020600020906004020160030160006101000a81548173ffffffffffffffffffffffffffffffffffffffff021916908373ffffffffffffffffffffffffffffffffffffffff160217905550600560008373ffffffffffffffffffffffffffffffffffffffff1673ffffffffffffffffffffffffffffffffffffffff16815260200190815260200160002054600560003373ffffffffffffffffffffffffffffffffffffffff1673ffffffffffffffffffffffffffffffffffffffff1681526020019081526020016000208190555061093833611eb5565b8173ffffffffffffffffffffffffffffffffffffffff163373ffffffffffffffffffffffffffffffffffffffff167fa4082afb15bb2709c549fe93aa02f69fcdc38ce4223337f22c6ea00f09568d9360405160405180910390a35050565b60606000601867ffffffffffffffff8111156109db577f4e487b7100000000000000000000000000000000000000000000000000000000600052604160045260246000fd5b604051908082528060200260200182016040528015610a095781602001602082028036833780820191505090505b5090508260068054905010610b7f5760006006600185610a299190614b6d565b81548110610a60577f4e487b7100000000000000000000000000000000000000000000000000000000600052603260045260246000fd5b9060005260206000209060040201905060005b6018811215610b7c576009600083600101548152602001908152602001600020600082815260200190815260200160002060009054906101000a900460ff16838281518110610aeb577f4e487b7100000000000000000000000000000000000000000000000000000000600052603260045260246000fd5b60200260200101906002811115610b2b577f4e487b7100000000000000000000000000000000000000000000000000000000600052602160045260246000fd5b90816002811115610b65577f4e487b7100000000000000000000000000000000000000000000000000000000600052602160045260246000fd5b815250508080610b7490614c36565b915050610a73565b50505b80915050919050565b6000600680549050905090565b6000600560003373ffffffffffffffffffffffffffffffffffffffff1673ffffffffffffffffffffffffffffffffffffffff1681526020019081526020016000205411610c17576040517f08c379a0000000000000000000000000000000000000000000000000000000008152600401610c0e90614750565b60405180910390fd5b600060066001600560003373ffffffffffffffffffffffffffffffffffffffff1673ffffffffffffffffffffffffffffffffffffffff16815260200190815260200160002054610c679190614b6d565b81548110610c9e577f4e487b7100000000000000000000000000000000000000000000000000000000600052603260045260246000fd5b9060005260206000209060040201905060003373ffffffffffffffffffffffffffffffffffffffff168260020160009054906101000a900473ffffffffffffffffffffffffffffffffffffffff1673ffffffffffffffffffffffffffffffffffffffff1614610d0e576002610d11565b60015b9050600060028360000154610d269190614cf9565b14151560016002811115610d63577f4e487b7100000000000000000000000000000000000000000000000000000000600052602160045260246000fd5b826002811115610d9c577f4e487b7100000000000000000000000000000000000000000000000000000000600052602160045260246000fd5b14151514610ddf576040517f08c379a0000000000000000000000000000000000000000000000000000000008152600401610dd6906147d0565b60405180910390fd5b60008512158015610df05750601885125b8015610ea1575060006002811115610e31577f4e487b7100000000000000000000000000000000000000000000000000000000600052602160045260246000fd5b6009600084600101548152602001908152602001600020600087815260200190815260200160002060009054906101000a900460ff166002811115610e9f577f4e487b7100000000000000000000000000000000000000000000000000000000600052602160045260246000fd5b145b610ee0576040517f08c379a0000000000000000000000000000000000000000000000000000000008152600401610ed7906146d0565b60405180910390fd5b6000600886610eef9190614cc8565b90506000600887610f0091906149e4565b9050601284600001541015610fcd5760008612610f52576040517f08c379a0000000000000000000000000000000000000000000000000000000008152600401610f4990614710565b60405180910390fd5b826009600086600101548152602001908152602001600020600089815260200190815260200160002060006101000a81548160ff02191690836002811115610fc3577f4e487b7100000000000000000000000000000000000000000000000000000000600052602160045260246000fd5b021790555061135c565b60008612158015610fde5750601886125b801561108e575082600281111561101e577f4e487b7100000000000000000000000000000000000000000000000000000000600052602160045260246000fd5b6009600086600101548152602001908152602001600020600088815260200190815260200160002060009054906101000a900460ff16600281111561108c577f4e487b7100000000000000000000000000000000000000000000000000000000600052602160045260246000fd5b145b6110cd576040517f08c379a00000000000000000000000000000000000000000000000000000000081526004016110c490614730565b60405180910390fd5b60006110dd856001015485611fe8565b9050600381111561126d5760006008886110f79190614cc8565b9050600060088961110891906149e4565b9050838114156111c357600082866111209190614ad9565b9050600181148061115057507fffffffffffffffffffffffffffffffffffffffffffffffffffffffffffffffff81145b8061116757506007831480156111665750600086145b5b8061117e575060008314801561117d5750600786145b5b6111bd576040517f08c379a00000000000000000000000000000000000000000000000000000000081526004016111b490614770565b60405180910390fd5b5061126a565b600184826111d19190614ad9565b148061120757507fffffffffffffffffffffffffffffffffffffffffffffffffffffffffffffffff84826112059190614ad9565b145b801561121257508482145b801561122a575060016002836112289190614cc8565b145b611269576040517f08c379a000000000000000000000000000000000000000000000000000000000815260040161126090614770565b60405180910390fd5b5b50505b60006009600087600101548152602001908152602001600020600089815260200190815260200160002060006101000a81548160ff021916908360028111156112df577f4e487b7100000000000000000000000000000000000000000000000000000000600052602160045260246000fd5b021790555083600960008760010154815260200190815260200160002060008a815260200190815260200160002060006101000a81548160ff02191690836002811115611355577f4e487b7100000000000000000000000000000000000000000000000000000000600052602160045260246000fd5b0217905550505b60006113698885876120d1565b9050600080600160028111156113a8577f4e487b7100000000000000000000000000000000000000000000000000000000600052602160045260246000fd5b8660028111156113e1577f4e487b7100000000000000000000000000000000000000000000000000000000600052602160045260246000fd5b146113ed5760016113f0565b60025b905082156115975761140281886131d9565b61159257600088121580156114175750601888125b80156114c75750806002811115611457577f4e487b7100000000000000000000000000000000000000000000000000000000600052602160045260246000fd5b600960008960010154815260200190815260200160002060008a815260200190815260200160002060009054906101000a900460ff1660028111156114c5577f4e487b7100000000000000000000000000000000000000000000000000000000600052602160045260246000fd5b145b80156114db57506114d98882896120d1565b155b61151a576040517f08c379a0000000000000000000000000000000000000000000000000000000008152600401611511906147f0565b60405180910390fd5b6000600960008960010154815260200190815260200160002060008a815260200190815260200160002060006101000a81548160ff0219169083600281111561158c577f4e487b7100000000000000000000000000000000000000000000000000000000600052602160045260246000fd5b02179055505b6115db565b600088126115da576040517f08c379a00000000000000000000000000000000000000000000000000000000081526004016115d1906147b0565b60405180910390fd5b5b600760003373ffffffffffffffffffffffffffffffffffffffff1673ffffffffffffffffffffffffffffffffffffffff168152602001908152602001600020600081548092919061162b90614c7f565b919050555086600001600081548092919061164590614c7f565b91905055506012876000015410611a7f576000611666886001015483611fe8565b9050600381108061167d575061167c82896132d4565b5b15611a7d5760003390508073ffffffffffffffffffffffffffffffffffffffff166108fc60036004662386f26fc100006116b79190614a4e565b6116c19190614a7f565b662386f26fc100006116d3919061498e565b9081150290604051600060405180830381858888f193505050501580156116fe573d6000803e3d6000fd5b506002600081548092919061171290614c7f565b91905055506003600081548092919061172a90614c7f565b9190505550600860003373ffffffffffffffffffffffffffffffffffffffff1673ffffffffffffffffffffffffffffffffffffffff168152602001908152602001600020600081548092919061177f90614c7f565b919050555061178d89613a26565b6001935060056003541415611a7b5760008060005b60048054905081101561197b5760076000600483815481106117ed577f4e487b7100000000000000000000000000000000000000000000000000000000600052603260045260246000fd5b9060005260206000200160009054906101000a900473ffffffffffffffffffffffffffffffffffffffff1673ffffffffffffffffffffffffffffffffffffffff1673ffffffffffffffffffffffffffffffffffffffff168152602001908152602001600020548210156119685760048181548110611894577f4e487b7100000000000000000000000000000000000000000000000000000000600052603260045260246000fd5b9060005260206000200160009054906101000a900473ffffffffffffffffffffffffffffffffffffffff16925060076000600483815481106118ff577f4e487b7100000000000000000000000000000000000000000000000000000000600052603260045260246000fd5b9060005260206000200160009054906101000a900473ffffffffffffffffffffffffffffffffffffffff1673ffffffffffffffffffffffffffffffffffffffff1673ffffffffffffffffffffffffffffffffffffffff1681526020019081526020016000205491505b808061197390614c7f565b9150506117a2565b5060008290508073ffffffffffffffffffffffffffffffffffffffff166108fc60056004662386f26fc100006119b19190614a4e565b6119bb9190614a7f565b9081150290604051600060405180830381858888f193505050501580156119e6573d6000803e3d6000fd5b506000600760008573ffffffffffffffffffffffffffffffffffffffff1673ffffffffffffffffffffffffffffffffffffffff1681526020019081526020016000208190555060006003819055508273ffffffffffffffffffffffffffffffffffffffff167f7c02e6947c9e74a869d0837ff26c287146793dbcabfc2629c544950efefc955c60405160405180910390a25050505b505b505b3373ffffffffffffffffffffffffffffffffffffffff167f26fa50c2cefc8f9bc77687c07f901e96b5b82527c727bd46fcd28c6fd33fc84e8b8b8b604051611ac993929190614659565b60405180910390a28115611b1b573373ffffffffffffffffffffffffffffffffffffffff167fc3a39f8631b261ea96aaead3940637315aa8778750aba3049dd32cb88dc25bae60405160405180910390a25b50505050505050505050565b60056020528060005260406000206000915090505481565b60096020528160005260406000206020528060005260406000206000915091509054906101000a900460ff1681565b6000600560003373ffffffffffffffffffffffffffffffffffffffff1673ffffffffffffffffffffffffffffffffffffffff1681526020019081526020016000205414611bf0576040517f08c379a0000000000000000000000000000000000000000000000000000000008152600401611be790614830565b60405180910390fd5b662386f26fc100003414611c39576040517f08c379a0000000000000000000000000000000000000000000000000000000008152600401611c30906146b0565b60405180910390fd5b6000600680549050905060066040518060800160405280600081526020018381526020013373ffffffffffffffffffffffffffffffffffffffff168152602001600073ffffffffffffffffffffffffffffffffffffffff168152509080600181540180825580915050600190039060005260206000209060040201600090919091909150600082015181600001556020820151816001015560408201518160020160006101000a81548173ffffffffffffffffffffffffffffffffffffffff021916908373ffffffffffffffffffffffffffffffffffffffff16021790555060608201518160030160006101000a81548173ffffffffffffffffffffffffffffffffffffffff021916908373ffffffffffffffffffffffffffffffffffffffff1602179055505050600181611d6e919061498e565b600560003373ffffffffffffffffffffffffffffffffffffffff1673ffffffffffffffffffffffffffffffffffffffff1681526020019081526020016000208190555060016000815480929190611dc490614c7f565b9190505550611dd233611eb5565b3373ffffffffffffffffffffffffffffffffffffffff167f67cf7f1535e1c1323fe4e76266f7d55f0c1f67fdf449db65e014f9d35881514d60405160405180910390a250565b60006006600183611e299190614b6d565b81548110611e60577f4e487b7100000000000000000000000000000000000000000000000000000000600052603260045260246000fd5b9060005260206000209060040201600101549050919050565b60076020528060005260406000206000915090505481565b60015481565b60035481565b60086020528060005260406000206000915090505481565b6000805b600480549050811015611f7a578273ffffffffffffffffffffffffffffffffffffffff1660048281548110611f17577f4e487b7100000000000000000000000000000000000000000000000000000000600052603260045260246000fd5b9060005260206000200160009054906101000a900473ffffffffffffffffffffffffffffffffffffffff1673ffffffffffffffffffffffffffffffffffffffff161415611f675760019150611f7a565b8080611f7290614c7f565b915050611eb9565b5080611fe4576004829080600181540180825580915050600190039060005260206000200160009091909190916101000a81548173ffffffffffffffffffffffffffffffffffffffff021916908373ffffffffffffffffffffffffffffffffffffffff1602179055505b5050565b6000806000905060005b60188112156120c657836002811115612034577f4e487b7100000000000000000000000000000000000000000000000000000000600052602160045260246000fd5b60096000878152602001908152602001600020600083815260200190815260200160002060009054906101000a900460ff16600281111561209e577f4e487b7100000000000000000000000000000000000000000000000000000000600052602160045260246000fd5b14156120b35781806120af90614c7f565b9250505b80806120be90614c36565b915050611ff2565b508091505092915050565b6000806008856120e19190614cc8565b905060006008866120f291906149e4565b9050600060016002846121059190614cc8565b14156128c2576007831480156121cb575085600281111561214f577f4e487b7100000000000000000000000000000000000000000000000000000000600052602160045260246000fd5b6009600087600101548152602001908152602001600020600060018a6121759190614ad9565b815260200190815260200160002060009054906101000a900460ff1660028111156121c9577f4e487b7100000000000000000000000000000000000000000000000000000000600052602160045260246000fd5b145b8015612287575085600281111561220b577f4e487b7100000000000000000000000000000000000000000000000000000000600052602160045260246000fd5b6009600087600101548152602001908152602001600020600060078a6122319190614ad9565b815260200190815260200160002060009054906101000a900460ff166002811115612285577f4e487b7100000000000000000000000000000000000000000000000000000000600052602160045260246000fd5b145b1561229557600190506128bd565b60078312801561235557508560028111156122d9577f4e487b7100000000000000000000000000000000000000000000000000000000600052602160045260246000fd5b6009600087600101548152602001908152602001600020600060018a6122ff9190614ad9565b815260200190815260200160002060009054906101000a900460ff166002811115612353577f4e487b7100000000000000000000000000000000000000000000000000000000600052602160045260246000fd5b145b80156124115750856002811115612395577f4e487b7100000000000000000000000000000000000000000000000000000000600052602160045260246000fd5b6009600087600101548152602001908152602001600020600060018a6123bb91906148fa565b815260200190815260200160002060009054906101000a900460ff16600281111561240f577f4e487b7100000000000000000000000000000000000000000000000000000000600052602160045260246000fd5b145b1561241f57600190506128bc565b6000821480156124df5750856002811115612463577f4e487b7100000000000000000000000000000000000000000000000000000000600052602160045260246000fd5b6009600087600101548152602001908152602001600020600060088a61248991906148fa565b815260200190815260200160002060009054906101000a900460ff1660028111156124dd577f4e487b7100000000000000000000000000000000000000000000000000000000600052602160045260246000fd5b145b801561259b575085600281111561251f577f4e487b7100000000000000000000000000000000000000000000000000000000600052602160045260246000fd5b6009600087600101548152602001908152602001600020600060108a61254591906148fa565b815260200190815260200160002060009054906101000a900460ff166002811115612599577f4e487b7100000000000000000000000000000000000000000000000000000000600052602160045260246000fd5b145b156125a957600190506128bb565b60018214801561266957508560028111156125ed577f4e487b7100000000000000000000000000000000000000000000000000000000600052602160045260246000fd5b6009600087600101548152602001908152602001600020600060088a6126139190614ad9565b815260200190815260200160002060009054906101000a900460ff166002811115612667577f4e487b7100000000000000000000000000000000000000000000000000000000600052602160045260246000fd5b145b801561272557508560028111156126a9577f4e487b7100000000000000000000000000000000000000000000000000000000600052602160045260246000fd5b6009600087600101548152602001908152602001600020600060088a6126cf91906148fa565b815260200190815260200160002060009054906101000a900460ff166002811115612723577f4e487b7100000000000000000000000000000000000000000000000000000000600052602160045260246000fd5b145b1561273357600190506128ba565b6002821480156127f35750856002811115612777577f4e487b7100000000000000000000000000000000000000000000000000000000600052602160045260246000fd5b6009600087600101548152602001908152602001600020600060088a61279d9190614ad9565b815260200190815260200160002060009054906101000a900460ff1660028111156127f1577f4e487b7100000000000000000000000000000000000000000000000000000000600052602160045260246000fd5b145b80156128af5750856002811115612833577f4e487b7100000000000000000000000000000000000000000000000000000000600052602160045260246000fd5b6009600087600101548152602001908152602001600020600060108a6128599190614ad9565b815260200190815260200160002060009054906101000a900460ff1660028111156128ad577f4e487b7100000000000000000000000000000000000000000000000000000000600052602160045260246000fd5b145b156128b957600190505b5b5b5b5b6131cc565b6000831415612bc957856002811115612904577f4e487b7100000000000000000000000000000000000000000000000000000000600052602160045260246000fd5b6009600087600101548152602001908152602001600020600060018a61292a91906148fa565b815260200190815260200160002060009054906101000a900460ff16600281111561297e577f4e487b7100000000000000000000000000000000000000000000000000000000600052602160045260246000fd5b148015612a3b57508560028111156129bf577f4e487b7100000000000000000000000000000000000000000000000000000000600052602160045260246000fd5b6009600087600101548152602001908152602001600020600060028a6129e591906148fa565b815260200190815260200160002060009054906101000a900460ff166002811115612a39577f4e487b7100000000000000000000000000000000000000000000000000000000600052602160045260246000fd5b145b15612a495760019050612bc4565b856002811115612a82577f4e487b7100000000000000000000000000000000000000000000000000000000600052602160045260246000fd5b6009600087600101548152602001908152602001600020600060068a612aa891906148fa565b815260200190815260200160002060009054906101000a900460ff166002811115612afc577f4e487b7100000000000000000000000000000000000000000000000000000000600052602160045260246000fd5b148015612bb95750856002811115612b3d577f4e487b7100000000000000000000000000000000000000000000000000000000600052602160045260246000fd5b6009600087600101548152602001908152602001600020600060078a612b6391906148fa565b815260200190815260200160002060009054906101000a900460ff166002811115612bb7577f4e487b7100000000000000000000000000000000000000000000000000000000600052602160045260246000fd5b145b15612bc357600190505b5b6131cb565b6006831415612ed057856002811115612c0b577f4e487b7100000000000000000000000000000000000000000000000000000000600052602160045260246000fd5b6009600087600101548152602001908152602001600020600060018a612c319190614ad9565b815260200190815260200160002060009054906101000a900460ff166002811115612c85577f4e487b7100000000000000000000000000000000000000000000000000000000600052602160045260246000fd5b148015612d425750856002811115612cc6577f4e487b7100000000000000000000000000000000000000000000000000000000600052602160045260246000fd5b6009600087600101548152602001908152602001600020600060028a612cec9190614ad9565b815260200190815260200160002060009054906101000a900460ff166002811115612d40577f4e487b7100000000000000000000000000000000000000000000000000000000600052602160045260246000fd5b145b15612d505760019050612ecb565b856002811115612d89577f4e487b7100000000000000000000000000000000000000000000000000000000600052602160045260246000fd5b6009600087600101548152602001908152602001600020600060018a612daf91906148fa565b815260200190815260200160002060009054906101000a900460ff166002811115612e03577f4e487b7100000000000000000000000000000000000000000000000000000000600052602160045260246000fd5b148015612ec05750856002811115612e44577f4e487b7100000000000000000000000000000000000000000000000000000000600052602160045260246000fd5b6009600087600101548152602001908152602001600020600060068a612e6a9190614ad9565b815260200190815260200160002060009054906101000a900460ff166002811115612ebe577f4e487b7100000000000000000000000000000000000000000000000000000000600052602160045260246000fd5b145b15612eca57600190505b5b6131ca565b856002811115612f09577f4e487b7100000000000000000000000000000000000000000000000000000000600052602160045260246000fd5b6009600087600101548152602001908152602001600020600060018a612f2f91906148fa565b815260200190815260200160002060009054906101000a900460ff166002811115612f83577f4e487b7100000000000000000000000000000000000000000000000000000000600052602160045260246000fd5b1480156130405750856002811115612fc4577f4e487b7100000000000000000000000000000000000000000000000000000000600052602160045260246000fd5b6009600087600101548152602001908152602001600020600060028a612fea91906148fa565b815260200190815260200160002060009054906101000a900460ff16600281111561303e577f4e487b7100000000000000000000000000000000000000000000000000000000600052602160045260246000fd5b145b1561304e57600190506131c9565b856002811115613087577f4e487b7100000000000000000000000000000000000000000000000000000000600052602160045260246000fd5b6009600087600101548152602001908152602001600020600060018a6130ad9190614ad9565b815260200190815260200160002060009054906101000a900460ff166002811115613101577f4e487b7100000000000000000000000000000000000000000000000000000000600052602160045260246000fd5b1480156131be5750856002811115613142577f4e487b7100000000000000000000000000000000000000000000000000000000600052602160045260246000fd5b6009600087600101548152602001908152602001600020600060028a6131689190614ad9565b815260200190815260200160002060009054906101000a900460ff1660028111156131bc577f4e487b7100000000000000000000000000000000000000000000000000000000600052602160045260246000fd5b145b156131c857600190505b5b5b5b5b8093505050509392505050565b6000806001905060005b60188112156132c957846002811115613225577f4e487b7100000000000000000000000000000000000000000000000000000000600052602160045260246000fd5b6009600086600101548152602001908152602001600020600083815260200190815260200160002060009054906101000a900460ff166002811115613293577f4e487b7100000000000000000000000000000000000000000000000000000000600052602160045260246000fd5b1480156132a857506132a68186866120d1565b155b156132b657600091506132c9565b80806132c190614c36565b9150506131e3565b508091505092915050565b6000806001905060008060005b6018811215613a19576008816132f79190614cc8565b925060088161330691906149e4565b9150866002811115613341577f4e487b7100000000000000000000000000000000000000000000000000000000600052602160045260246000fd5b6009600088600101548152602001908152602001600020600083815260200190815260200160002060009054906101000a900460ff1660028111156133af577f4e487b7100000000000000000000000000000000000000000000000000000000600052602160045260246000fd5b1415613a0657600083141561353757600060028111156133f8577f4e487b7100000000000000000000000000000000000000000000000000000000600052602160045260246000fd5b6009600088600101548152602001908152602001600020600060018461341e91906148fa565b815260200190815260200160002060009054906101000a900460ff166002811115613472577f4e487b7100000000000000000000000000000000000000000000000000000000600052602160045260246000fd5b148061352f5750600060028111156134b3577f4e487b7100000000000000000000000000000000000000000000000000000000600052602160045260246000fd5b600960008860010154815260200190815260200160002060006007846134d991906148fa565b815260200190815260200160002060009054906101000a900460ff16600281111561352d577f4e487b7100000000000000000000000000000000000000000000000000000000600052602160045260246000fd5b145b1593506139fb565b6007831480156136b457506000600281111561357c577f4e487b7100000000000000000000000000000000000000000000000000000000600052602160045260246000fd5b600960008860010154815260200190815260200160002060006001846135a291906148fa565b815260200190815260200160002060009054906101000a900460ff1660028111156135f6577f4e487b7100000000000000000000000000000000000000000000000000000000600052602160045260246000fd5b14806136b3575060006002811115613637577f4e487b7100000000000000000000000000000000000000000000000000000000600052602160045260246000fd5b6009600088600101548152602001908152602001600020600060078461365d9190614ad9565b815260200190815260200160002060009054906101000a900460ff1660028111156136b1577f4e487b7100000000000000000000000000000000000000000000000000000000600052602160045260246000fd5b145b5b156136c257600093506139fa565b60078312801561383f575060006002811115613707577f4e487b7100000000000000000000000000000000000000000000000000000000600052602160045260246000fd5b6009600088600101548152602001908152602001600020600060018461372d91906148fa565b815260200190815260200160002060009054906101000a900460ff166002811115613781577f4e487b7100000000000000000000000000000000000000000000000000000000600052602160045260246000fd5b148061383e5750600060028111156137c2577f4e487b7100000000000000000000000000000000000000000000000000000000600052602160045260246000fd5b600960008860010154815260200190815260200160002060006001846137e89190614ad9565b815260200190815260200160002060009054906101000a900460ff16600281111561383c577f4e487b7100000000000000000000000000000000000000000000000000000000600052602160045260246000fd5b145b5b1561384d57600093506139f9565b600160028461385c9190614cc8565b1480156139ee57506002821280156139255750600060028111156138a9577f4e487b7100000000000000000000000000000000000000000000000000000000600052602160045260246000fd5b600960008860010154815260200190815260200160002060006008846138cf91906148fa565b815260200190815260200160002060009054906101000a900460ff166002811115613923577f4e487b7100000000000000000000000000000000000000000000000000000000600052602160045260246000fd5b145b806139ed57506000821380156139ec575060006002811115613970577f4e487b7100000000000000000000000000000000000000000000000000000000600052602160045260246000fd5b600960008860010154815260200190815260200160002060006008846139969190614ad9565b815260200190815260200160002060009054906101000a900460ff1660028111156139ea577f4e487b7100000000000000000000000000000000000000000000000000000000600052602160045260246000fd5b145b5b5b156139f857600093505b5b5b5b83613a0557613a19565b5b8080613a1190614c36565b9150506132e1565b5082935050505092915050565b60008160010154905060006001600680549050613a439190614b6d565b90506000600560008560020160009054906101000a900473ffffffffffffffffffffffffffffffffffffffff1673ffffffffffffffffffffffffffffffffffffffff1673ffffffffffffffffffffffffffffffffffffffff168152602001908152602001600020819055506000600560008560030160009054906101000a900473ffffffffffffffffffffffffffffffffffffffff1673ffffffffffffffffffffffffffffffffffffffff1673ffffffffffffffffffffffffffffffffffffffff16815260200190815260200160002081905550600060068281548110613b53577f4e487b7100000000000000000000000000000000000000000000000000000000600052603260045260246000fd5b9060005260206000209060040201905060005b6018811215613ca75760006006805490501115613c215760096000848152602001908152602001600020600082815260200190815260200160002060009054906101000a900460ff1660096000868152602001908152602001600020600083815260200190815260200160002060006101000a81548160ff02191690836002811115613c1b577f4e487b7100000000000000000000000000000000000000000000000000000000600052602160045260246000fd5b02179055505b600060096000858152602001908152602001600020600083815260200190815260200160002060006101000a81548160ff02191690836002811115613c8f577f4e487b7100000000000000000000000000000000000000000000000000000000600052602160045260246000fd5b02179055508080613c9f90614c36565b915050613b66565b5060006006805490501115613fb1578281600101819055508060020160009054906101000a900473ffffffffffffffffffffffffffffffffffffffff1660068481548110613d1e577f4e487b7100000000000000000000000000000000000000000000000000000000600052603260045260246000fd5b906000526020600020906004020160020160006101000a81548173ffffffffffffffffffffffffffffffffffffffff021916908373ffffffffffffffffffffffffffffffffffffffff1602179055508060030160009054906101000a900473ffffffffffffffffffffffffffffffffffffffff1660068481548110613dcc577f4e487b7100000000000000000000000000000000000000000000000000000000600052603260045260246000fd5b906000526020600020906004020160030160006101000a81548173ffffffffffffffffffffffffffffffffffffffff021916908373ffffffffffffffffffffffffffffffffffffffff160217905550806000015460068481548110613e5a577f4e487b7100000000000000000000000000000000000000000000000000000000600052603260045260246000fd5b906000526020600020906004020160000181905550600183613e7c919061498e565b600560008360020160009054906101000a900473ffffffffffffffffffffffffffffffffffffffff1673ffffffffffffffffffffffffffffffffffffffff1673ffffffffffffffffffffffffffffffffffffffff16815260200190815260200160002081905550600073ffffffffffffffffffffffffffffffffffffffff168160030160009054906101000a900473ffffffffffffffffffffffffffffffffffffffff1673ffffffffffffffffffffffffffffffffffffffff1614613fb057600183613f48919061498e565b600560008360030160009054906101000a900473ffffffffffffffffffffffffffffffffffffffff1673ffffffffffffffffffffffffffffffffffffffff1673ffffffffffffffffffffffffffffffffffffffff168152602001908152602001600020819055505b5b6006805480613fe9577f4e487b7100000000000000000000000000000000000000000000000000000000600052603160045260246000fd5b600190038181906000526020600020906004020160008082016000905560018201600090556002820160006101000a81549073ffffffffffffffffffffffffffffffffffffffff02191690556003820160006101000a81549073ffffffffffffffffffffffffffffffffffffffff0219169055505090556001600081548092919061407390614c0c565b919050555050505050565b60008135905061408d81614dcb565b92915050565b6000813590506140a281614de2565b92915050565b6000813590506140b781614df9565b92915050565b6000602082840312156140cf57600080fd5b60006140dd8482850161407e565b91505092915050565b6000806000606084860312156140fb57600080fd5b600061410986828701614093565b935050602061411a86828701614093565b925050604061412b86828701614093565b9150509250925092565b60006020828403121561414757600080fd5b6000614155848285016140a8565b91505092915050565b6000806040838503121561417157600080fd5b600061417f858286016140a8565b925050602061419085828601614093565b9150509250929050565b60006141a6838361421f565b60208301905092915050565b6141bb81614ba1565b82525050565b60006141cc826148c0565b6141d681856148d8565b93506141e1836148b0565b8060005b838110156142125781516141f9888261419a565b9750614204836148cb565b9250506001810190506141e5565b5085935050505092915050565b61422881614bfa565b82525050565b61423781614bfa565b82525050565b61424681614bc6565b82525050565b60006142596018836148e9565b91507f4f706f6e656e7420686173206e6f206f70656e2067616d6500000000000000006000830152602082019050919050565b60006142996011836148e9565b91507f47616d6520636f7374206e6f74206d65740000000000000000000000000000006000830152602082019050919050565b60006142d96017836148e9565b91507f4e6f7420612076616c696420746f20706f736974696f6e0000000000000000006000830152602082019050919050565b60006143196017836148e9565b91507f47616d6520616c726561647920696e2070726f677265730000000000000000006000830152602082019050919050565b60006143596021836148e9565b91507f4d6f76696e67206e6f7420616c6c6f776564206265666f7265207475726e203160008301527f38000000000000000000000000000000000000000000000000000000000000006020830152604082019050919050565b60006143bf6014836148e9565b91507f4e6f7420612076616c69642066726f6d20706f730000000000000000000000006000830152602082019050919050565b60006143ff600e836148e9565b91507f4e6f206163746976652067616d650000000000000000000000000000000000006000830152602082019050919050565b600061443f6010836148e9565b91507f4d6f7665206e6f7420616c6c6f776564000000000000000000000000000000006000830152602082019050919050565b600061447f600e836148e9565b91507f47616d65206e6f7420666f756e640000000000000000000000000000000000006000830152602082019050919050565b60006144bf6012836148e9565b91507f72656d6f7665206e6f7420616c6c6f77656400000000000000000000000000006000830152602082019050919050565b60006144ff600d836148e9565b91507f4e6f7420796f7572207475726e000000000000000000000000000000000000006000830152602082019050919050565b600061453f6013836148e9565b91507f52656d6f7665206e6f7420706f737369626c65000000000000000000000000006000830152602082019050919050565b600061457f6011836148e9565b91507f47616d65206461746120637572727570740000000000000000000000000000006000830152602082019050919050565b60006145bf600f836148e9565b91507f416c726561647920706c6179696e6700000000000000000000000000000000006000830152602082019050919050565b6145fb81614bf0565b82525050565b600060208201905061461660008301846141b2565b92915050565b6000602082019050818103600083015261463681846141c1565b905092915050565b6000602082019050614653600083018461422e565b92915050565b600060608201905061466e600083018661423d565b61467b602083018561423d565b614688604083018461423d565b949350505050565b600060208201905081810360008301526146a98161424c565b9050919050565b600060208201905081810360008301526146c98161428c565b9050919050565b600060208201905081810360008301526146e9816142cc565b9050919050565b600060208201905081810360008301526147098161430c565b9050919050565b600060208201905081810360008301526147298161434c565b9050919050565b60006020820190508181036000830152614749816143b2565b9050919050565b60006020820190508181036000830152614769816143f2565b9050919050565b6000602082019050818103600083015261478981614432565b9050919050565b600060208201905081810360008301526147a981614472565b9050919050565b600060208201905081810360008301526147c9816144b2565b9050919050565b600060208201905081810360008301526147e9816144f2565b9050919050565b6000602082019050818103600083015261480981614532565b9050919050565b6000602082019050818103600083015261482981614572565b9050919050565b60006020820190508181036000830152614849816145b2565b9050919050565b600060208201905061486560008301846145f2565b92915050565b600060808201905061488060008301876145f2565b61488d60208301866145f2565b61489a60408301856141b2565b6148a760608301846141b2565b95945050505050565b6000819050602082019050919050565b600081519050919050565b6000602082019050919050565b600082825260208201905092915050565b600082825260208201905092915050565b600061490582614bc6565b915061491083614bc6565b9250817f7fffffffffffffffffffffffffffffffffffffffffffffffffffffffffffffff0383136000831215161561494b5761494a614d2a565b5b817f800000000000000000000000000000000000000000000000000000000000000003831260008312161561498357614982614d2a565b5b828201905092915050565b600061499982614bf0565b91506149a483614bf0565b9250827fffffffffffffffffffffffffffffffffffffffffffffffffffffffffffffffff038211156149d9576149d8614d2a565b5b828201905092915050565b60006149ef82614bc6565b91506149fa83614bc6565b925082614a0a57614a09614d59565b5b600160000383147f800000000000000000000000000000000000000000000000000000000000000083141615614a4357614a42614d2a565b5b828205905092915050565b6000614a5982614bf0565b9150614a6483614bf0565b925082614a7457614a73614d59565b5b828204905092915050565b6000614a8a82614bf0565b9150614a9583614bf0565b9250817fffffffffffffffffffffffffffffffffffffffffffffffffffffffffffffffff0483118215151615614ace57614acd614d2a565b5b828202905092915050565b6000614ae482614bc6565b9150614aef83614bc6565b9250827f800000000000000000000000000000000000000000000000000000000000000001821260008412151615614b2a57614b29614d2a565b5b827f7fffffffffffffffffffffffffffffffffffffffffffffffffffffffffffffff018213600084121615614b6257614b61614d2a565b5b828203905092915050565b6000614b7882614bf0565b9150614b8383614bf0565b925082821015614b9657614b95614d2a565b5b828203905092915050565b6000614bac82614bd0565b9050919050565b6000819050614bc182614db7565b919050565b6000819050919050565b600073ffffffffffffffffffffffffffffffffffffffff82169050919050565b6000819050919050565b6000614c0582614bb3565b9050919050565b6000614c1782614bf0565b91506000821415614c2b57614c2a614d2a565b5b600182039050919050565b6000614c4182614bc6565b91507f7fffffffffffffffffffffffffffffffffffffffffffffffffffffffffffffff821415614c7457614c73614d2a565b5b600182019050919050565b6000614c8a82614bf0565b91507fffffffffffffffffffffffffffffffffffffffffffffffffffffffffffffffff821415614cbd57614cbc614d2a565b5b600182019050919050565b6000614cd382614bc6565b9150614cde83614bc6565b925082614cee57614ced614d59565b5b828207905092915050565b6000614d0482614bf0565b9150614d0f83614bf0565b925082614d1f57614d1e614d59565b5b828206905092915050565b7f4e487b7100000000000000000000000000000000000000000000000000000000600052601160045260246000fd5b7f4e487b7100000000000000000000000000000000000000000000000000000000600052601260045260246000fd5b7f4e487b7100000000000000000000000000000000000000000000000000000000600052602160045260246000fd5b60038110614dc857614dc7614d88565b5b50565b614dd481614ba1565b8114614ddf57600080fd5b50565b614deb81614bc6565b8114614df657600080fd5b50565b614e0281614bf0565b8114614e0d57600080fd5b5056fea2646970667358221220a2a2a9c6e2f74eff2531026ffc79d9f02e6d04df4a8c198bdfe256db485beed764736f6c63430008000033",
  "immutableReferences": {},
  "source": "// SPDX-License-Identifier: MIT\r\npragma solidity >=0.8.0 <0.9.0;\r\n\r\ncontract Merels {\r\n    uint256 constant GAME_COST = 10000000 gwei;\r\n    uint256 constant MIN_FINSIHED_GAMES_BFORE_LOTTERY = 5;\r\n    enum COLORS {UNDEFINED, WHITE, BLACK}\r\n\r\n    address private owner;\r\n\r\n    struct Game {\r\n        uint256 round;\r\n        uint256 index;\r\n        address white;\r\n        address black;\r\n    }\r\n\r\n    uint256 public activeGames;\r\n    uint256 public finishedGames;\r\n    uint256 public finishedGamesSinceLastPayout;\r\n\r\n    address[] public allPlayers;\r\n\r\n    /*\r\n        mapping for quicker access to own Game\r\n    */\r\n    mapping(address => uint256) public gameNumberByAddress;\r\n\r\n    /*\r\n     * list of all games\r\n     */\r\n    Game[] public games;\r\n\r\n    mapping(address => uint256) public roundsPlayedByAddress;\r\n\r\n    mapping(address => uint256) public gamesWonByAddress;\r\n\r\n    /*\r\n     * played positions\r\n     */\r\n    mapping(uint256 => mapping(int256 => COLORS)) public positions;\r\n\r\n    //Event game started\r\n    event GameStarted(address indexed _sender);\r\n\r\n    //Event game joined\r\n    event GameJoined(address indexed _sender, address indexed _joined);\r\n\r\n    //Event made move\r\n    event MadeMove(\r\n        address indexed _sender,\r\n        int256 _toPos,\r\n        int256 _fromPos,\r\n        int256 _removePos\r\n    );\r\n\r\n    //Event WON\r\n    event WonGame(address indexed _sender);\r\n\r\n    //Event WON\r\n    event LuckyPlayer(address indexed _sender);\r\n\r\n    /**\r\n     * @dev Set contract deployer as owner\r\n     */\r\n    constructor() {\r\n        owner = msg.sender;\r\n    }\r\n\r\n    function startGame() public payable {\r\n        require(gameNumberByAddress[msg.sender] == 0, \"Already playing\");\r\n        require(msg.value == GAME_COST, \"Game cost not met\");\r\n        uint256 index = games.length;\r\n        games.push(\r\n            Game({round: 0, index: index, white: msg.sender, black: address(0)})\r\n        );\r\n        gameNumberByAddress[msg.sender] = index + 1;\r\n        activeGames++;\r\n        addPlayerToPlayerList(msg.sender);\r\n\r\n        emit GameStarted(msg.sender);\r\n    }\r\n\r\n    function joinGame(address oponent) public payable {\r\n        require(gameNumberByAddress[msg.sender] == 0, \"Already playing\");\r\n        require(gameNumberByAddress[oponent] > 0, \"Oponent has no open game\");\r\n        require(msg.value == GAME_COST, \"Game cost not met\");\r\n        uint256 index = gameNumberByAddress[oponent] - 1;\r\n        require(games.length > index, \"Game not found\");\r\n        require(games[index].white == oponent, \"Game data currupt\");\r\n        require(games[index].black == address(0), \"Game already in progres\");\r\n        games[index].black = msg.sender;\r\n        gameNumberByAddress[msg.sender] = gameNumberByAddress[oponent];\r\n        addPlayerToPlayerList(msg.sender);\r\n        emit GameJoined(msg.sender, oponent);\r\n    }\r\n\r\n    function makeMove(\r\n        int256 toPos,\r\n        int256 fromPos,\r\n        int256 removePos\r\n    ) public payable {\r\n        require(gameNumberByAddress[msg.sender] > 0, \"No active game\");\r\n        //require(msg.value > 100, \"100 required to join a game\");\r\n        Game storage game = games[gameNumberByAddress[msg.sender] - 1];\r\n        COLORS ownColor =\r\n            game.white == msg.sender ? COLORS.WHITE : COLORS.BLACK;\r\n        require(\r\n            (ownColor == COLORS.WHITE) == (game.round % 2 == 0),\r\n            \"Not your turn\"\r\n        );\r\n\r\n        require(\r\n            toPos >= 0 &&\r\n                toPos < 24 &&\r\n                positions[game.index][toPos] == COLORS.UNDEFINED,\r\n            \"Not a valid to position\"\r\n        );\r\n        int256 posInCircle = toPos % 8;\r\n        int256 circle = toPos / 8;\r\n\r\n        if (game.round < 18) {\r\n            require(fromPos < 0, \"Moving not allowed before turn 18\");\r\n            positions[game.index][toPos] = ownColor;\r\n        } else {\r\n            require(\r\n                fromPos >= 0 &&\r\n                    fromPos < 24 &&\r\n                    positions[game.index][fromPos] == ownColor,\r\n                \"Not a valid from pos\"\r\n            );\r\n            uint256 ownCount = countColor(game.index, ownColor);\r\n            if (ownCount > 3) {\r\n                int256 fromPosInCircle = fromPos % 8;\r\n                int256 fromCircle = fromPos / 8;\r\n                if (fromCircle == circle) {\r\n                    int256 dif = posInCircle - fromPosInCircle;\r\n                    require(dif == 1 || dif == -1 ||\r\n                            (fromPosInCircle == 7 && posInCircle == 0) ||\r\n                            (fromPosInCircle == 0 && posInCircle == 7),\r\n                        \"Move not allowed\"\r\n                    );\r\n                } else {\r\n                    require((fromCircle - circle == 1 || fromCircle - circle == -1) &&\r\n                            fromPosInCircle == posInCircle && fromPosInCircle % 2 == 1,\r\n                        \"Move not allowed\"\r\n                    );\r\n                }\r\n            }\r\n\r\n            positions[game.index][fromPos] = COLORS.UNDEFINED;\r\n            positions[game.index][toPos] = ownColor;\r\n        }\r\n\r\n        bool ownerHasMill = checkMill(toPos, ownColor, game);\r\n\r\n        bool won = false;\r\n        COLORS oponentColor = ownColor == COLORS.WHITE ? COLORS.BLACK : COLORS.WHITE;\r\n        if (ownerHasMill) {\r\n            if(!oponentHasOnlyMills(oponentColor, game))\r\n            {\r\n                require(\r\n                    removePos >= 0 &&\r\n                        removePos < 24 &&\r\n                        positions[game.index][removePos] == oponentColor &&\r\n                        !checkMill(removePos, oponentColor, game),\r\n                    \"Remove not possible\"\r\n                );\r\n                positions[game.index][removePos] = COLORS.UNDEFINED;\r\n            }\r\n        } else {\r\n            require(removePos < 0, \"remove not allowed\");\r\n        }\r\n        \r\n        roundsPlayedByAddress[msg.sender]++;\r\n        game.round++;\r\n        if (game.round >= 18) {\r\n            uint256 countOponent = countColor(game.index, oponentColor);\r\n            if (countOponent < 3 || oponentCannotMove(oponentColor, game)) {\r\n                // WON! so we pay out\r\n                address payable winner = payable(msg.sender);\r\n                winner.transfer(GAME_COST + GAME_COST / 4 * 3);\r\n                finishedGames++;\r\n                finishedGamesSinceLastPayout++;\r\n                gamesWonByAddress[msg.sender]++;\r\n                cleanUpFinishedGame(game);\r\n                won = true;\r\n                if(finishedGamesSinceLastPayout == MIN_FINSIHED_GAMES_BFORE_LOTTERY)\r\n                {\r\n                    address mostPlayed = address(0);\r\n                    uint256 maxRounds = 0;\r\n                    for(uint256 i = 0; i < allPlayers.length; i++)\r\n                    {\r\n                        if(maxRounds < roundsPlayedByAddress[allPlayers[i]])\r\n                        {\r\n                            mostPlayed = allPlayers[i];\r\n                            maxRounds = roundsPlayedByAddress[allPlayers[i]];\r\n                        }\r\n                        \r\n                    }\r\n                    address payable lucky = payable(mostPlayed);\r\n                    lucky.transfer(GAME_COST / 4 * MIN_FINSIHED_GAMES_BFORE_LOTTERY);\r\n                    roundsPlayedByAddress[mostPlayed] = 0;\r\n                    finishedGamesSinceLastPayout = 0;\r\n                    emit LuckyPlayer(mostPlayed);\r\n                }\r\n            }\r\n        }\r\n\r\n        emit MadeMove(msg.sender, toPos, fromPos, removePos);\r\n        if (won) {\r\n            emit WonGame(msg.sender);\r\n        }\r\n    }\r\n\r\n    function addPlayerToPlayerList(address player) private {\r\n        bool found = false;\r\n        for (uint256 i = 0; i < allPlayers.length; i++) {\r\n            if (allPlayers[i] == player) {\r\n                found = true;\r\n                break;\r\n            }\r\n        }\r\n        if (!found) {\r\n            allPlayers.push(player);\r\n        }\r\n    }\r\n\r\n    function cleanUpFinishedGame(Game storage game) private {\r\n        uint256 gameIndex = game.index;\r\n        uint256 lastIndex = games.length - 1;\r\n        gameNumberByAddress[game.white] = 0;\r\n        gameNumberByAddress[game.black] = 0;\r\n        Game storage last = games[lastIndex];\r\n\r\n        for (int256 i = 0; i < 24; i++) {\r\n            if(games.length > 0 )\r\n            {\r\n                positions[gameIndex][i] = positions[lastIndex][i];\r\n            }\r\n            positions[lastIndex][i] = COLORS.UNDEFINED;\r\n        }\r\n\r\n        if(games.length > 0 )\r\n        {\r\n            last.index = gameIndex;\r\n            games[gameIndex].white = last.white;\r\n            games[gameIndex].black = last.black;\r\n            games[gameIndex].round = last.round;       \r\n            gameNumberByAddress[last.white] = gameIndex + 1;\r\n            if(last.black != address(0))\r\n            {\r\n                gameNumberByAddress[last.black] = gameIndex + 1;\r\n            }\r\n        }\r\n\r\n        games.pop();\r\n        activeGames--;\r\n    }\r\n\r\n    function oponentCannotMove(COLORS color,\r\n        Game storage game) private view returns (bool) {\r\n        bool isTrue = true;\r\n        int256 posInCircle = 0;\r\n        int256 circle = 0;\r\n        for (int256 i = 0; i < 24; i++) {\r\n            posInCircle = i % 8;\r\n            circle = i / 8;\r\n            if (positions[game.index][i] == color) {\r\n                if(posInCircle == 0)\r\n                {\r\n                    isTrue = !(positions[game.index][i+1] == COLORS.UNDEFINED || positions[game.index][i+7] == COLORS.UNDEFINED);\r\n                }\r\n                else if(posInCircle == 7 && (positions[game.index][i+1] == COLORS.UNDEFINED || positions[game.index][i-7] == COLORS.UNDEFINED))\r\n                {\r\n                    isTrue = false;\r\n                }\r\n                else if(posInCircle < 7 && (positions[game.index][i+1] == COLORS.UNDEFINED || positions[game.index][i-1] == COLORS.UNDEFINED))\r\n                {\r\n                    isTrue = false;\r\n                }\r\n                else if(posInCircle % 2 == 1 && ((circle < 2 && positions[game.index][i+8] == COLORS.UNDEFINED) || (circle > 0 && positions[game.index][i-8] == COLORS.UNDEFINED)))\r\n                {                    \r\n                    isTrue = false;\r\n                }\r\n                if(!isTrue)\r\n                {\r\n                    break;\r\n                }\r\n            }\r\n        }\r\n        return isTrue;\r\n    }\r\n\r\n    function oponentHasOnlyMills(COLORS color,\r\n        Game storage game) private view returns (bool) {\r\n        bool isTrue = true;\r\n        for (int256 i = 0; i < 24; i++) {\r\n            if (positions[game.index][i] == color && !checkMill(i, color, game)) {\r\n                isTrue = false;\r\n                break;\r\n            }\r\n        }\r\n        return isTrue;\r\n    }\r\n\r\n    function checkMill(\r\n        int256 pos,\r\n        COLORS color,\r\n        Game storage game\r\n    ) private view returns (bool) {\r\n        int256 posInCircle = pos % 8;\r\n        int256 circle = pos / 8;\r\n        bool isMill = false;\r\n        if (posInCircle % 2 == 1) {\r\n            if (\r\n                posInCircle == 7 &&\r\n                positions[game.index][pos - 1] == color &&\r\n                positions[game.index][pos - 7] == color\r\n            ) {\r\n                isMill = true;\r\n            } else if (\r\n                posInCircle < 7 &&\r\n                positions[game.index][pos - 1] == color &&\r\n                positions[game.index][pos + 1] == color\r\n            ) {\r\n                isMill = true;\r\n            } else if (\r\n                circle == 0 &&\r\n                positions[game.index][pos + 8] == color &&\r\n                positions[game.index][pos + 16] == color\r\n            ) {\r\n                isMill = true;\r\n            } else if (\r\n                circle == 1 &&\r\n                positions[game.index][pos - 8] == color &&\r\n                positions[game.index][pos + 8] == color\r\n            ) {\r\n                isMill = true;\r\n            } else if (\r\n                circle == 2 &&\r\n                positions[game.index][pos - 8] == color &&\r\n                positions[game.index][pos - 16] == color\r\n            ) {\r\n                isMill = true;\r\n            }\r\n        } else if (posInCircle == 0) {\r\n            if (\r\n                positions[game.index][pos + 1] == color &&\r\n                positions[game.index][pos + 2] == color\r\n            ) {\r\n                isMill = true;\r\n            } else if (\r\n                positions[game.index][pos + 6] == color &&\r\n                positions[game.index][pos + 7] == color\r\n            ) {\r\n                isMill = true;\r\n            }\r\n        } else if (posInCircle == 6) {\r\n            if (\r\n                positions[game.index][pos - 1] == color &&\r\n                positions[game.index][pos - 2] == color\r\n            ) {\r\n                isMill = true;\r\n            } else if (\r\n                positions[game.index][pos + 1] == color &&\r\n                positions[game.index][pos - 6] == color\r\n            ) {\r\n                isMill = true;\r\n            }\r\n        } else {\r\n            if (\r\n                positions[game.index][pos + 1] == color &&\r\n                positions[game.index][pos + 2] == color\r\n            ) {\r\n                isMill = true;\r\n            } else if (\r\n                positions[game.index][pos - 1] == color &&\r\n                positions[game.index][pos - 2] == color\r\n            ) {\r\n                isMill = true;\r\n            }\r\n        }\r\n        return isMill;\r\n    }\r\n\r\n    function countColor(uint256 gameIndex, COLORS color)\r\n        private\r\n        view\r\n        returns (uint256)\r\n    {\r\n        uint256 count = 0;\r\n        for (int256 i = 0; i < 24; i++) {\r\n            if (positions[gameIndex][i] == color) {\r\n                count++;\r\n            }\r\n        }\r\n        return count;\r\n    }\r\n\r\n    function getGamesIndex(uint256 gameNumber) view public returns (uint256) {\r\n        return games[gameNumber-1].index;\r\n    }\r\n\r\n    function getPositions(uint256 gameNumber) view public returns (COLORS[] memory)\r\n    {\r\n        COLORS[] memory tempPositions = new  COLORS[](24);\r\n        if(games.length >= gameNumber)\r\n        {\r\n            Game storage game = games[gameNumber -1];\r\n            for(int256 i = 0; i < 24; i++)\r\n            {\r\n                tempPositions[uint(i)] = positions[game.index][i];\r\n            }\r\n        }\r\n        return tempPositions;\r\n    }\r\n\r\n    function gameCount() public view returns (uint256) {\r\n        return games.length;\r\n    }\r\n}\r\n",
  "sourcePath": "D:/Webdevelopment/SmartContracts/merelsOnTheBlockchain/blockchain/contracts/Merels.sol",
  "compiler": {
    "name": "solc",
    "version": "0.8.0+commit.c7dfd78e.Emscripten.clang"
  },
  "schemaVersion": "3.4.0",
  "updatedAt": "2021-05-03T12:58:16.565Z",
  "networkType": "ethereum",
  "devdoc": {
    "kind": "dev",
    "methods": {
      "constructor": {
        "details": "Set contract deployer as owner"
      }
    },
    "version": 1
  },
  "userdoc": {
    "kind": "user",
    "methods": {},
    "version": 1
  }
}